:020000022000DC
:1060000000000420B9F20200F9F20200FBF20200E3
:10601000FDF20200FFF2020001F3020000000000A6
:10602000000000000000000000000000850C0300DC
:1060300005F3020000000000A50C030009F30200B4
:106040005D5203000BF302000BF302000BF302009E
:106050000BF302000BF3020015F502000BF3020034
:106060000BF302000BF302000BF302000BF3020030
:106070000BF302000BF302000BF302000BF3020020
:106080000BF30200DD0903000BF302000BF3020027
:106090000BF302000BF302000BF302000BF3020000
:1060A0000BF302000BF302000BF302000BF30200F0
:1060B0000BF302000BF302000000000000000000E0
:1060C0000BF302000BF302000BF30200311103008B
:1060D0000BF302000BF302000BF30200751D03002B
:1060E0000BF302000BF302000BF3020000000000B0
:1060F000000000000BF3020000000000A9110300E3
:10610000000000000000000000000000000000008F
:10611000000000000000000000000000000000007F
:10612000000000000000000000000000000000006F
:10613000000000000000000000000000000000005F
:10614000000000000000000000000000000000004F
:10615000000000000000000000000000000000003F
:10616000000000000000000000000000000000002F
:10617000000000000000000000000000000000001F
:10618000000000000000000000000000000000000F
:1061900000000000000000000000000000000000FF
:1061A00000000000000000000000000000000000EF
:1061B00000000000000000000000000000000000DF
:1061C00000000000000000000000000000000000CF
:1061D00000000000000000000000000000000000BF
:1061E00000000000000000000000000000000000AF
:1061F000000000000000000000000000000000009F
:10620000F1EE103A43F08073E1EE103A704700BFB0
:1062100010B5054C237833B9044B13B10448AFF3E0
:1062200000800123237010BD646300200000000083
:1062300048AA030008B5034B1BB103490348AFF359
:10624000008008BD000000006863002048AA030029
:10625000154B002B08BF134B9D46A3F5803A002138
:106260008B460F461348144A121A10F03DFE0F4B8E
:10627000002B00D098470E4B002B00D098470020F1
:10628000002104000D000D48002802D00C48AFF397
:10629000008010F0CDFD200029000BF0F3FD10F080
:1062A000A1FD00BF00000800000004200000000065
:1062B00000000000646300207C88002000000000D3
:1062C0000000000010B50468027AB0F906300649F3
:1062D00084B0CDE9012400930379427903480BF09F
:1062E00049FB04B010BD00BF349C03001C740020A7
:1062F00008B5094B09491A5C09480BF03BFB094BEF
:1063000009481B784371094A00230371BDE808401E
:10631000117804F0B7BA00BF949C0300789C030086
:106320001C740020296000201C6000202A600020CE
:1063300010B544F620611E4800F0ECF91C4800F04E
:10634000D1F91C491C480BF0C5FA04F08DFA01285C
:1063500000D010BD194C40220021206810F0C4FD6F
:10636000174A23681278627148221A702268154B06
:1063700065215170226819786C2393702268D3705C
:1063800023686F2221201A7158710622204622713B
:1063900004F078FA48B10C4B0C491A6806480132EF
:1063A000BDE810401A600BF0E5BA094B0949F4E763
:1063B000C8630020989C03001C7400201C6000200F
:1063C000296000202A60002080630020C89C030010
:1063D000C4630020B09C030008B50C490C480BF0C6
:1063E00079FA0C4B187804F08DFA00B108BD4FF41F
:1063F0007A7009F0DDF8084844F6206100F08AF967
:10640000BDE80840044800F06DB900BFE09C0300FF
:106410001C740020E0630020C863002010B5012137
:1064200023200BF0ABF9002123200BF0E7F900F05B
:1064300081F823484FF4E13104460BF02FFC01E0D2
:1064400009F0B6F820460BF02BFC03460A20002B7F
:10645000F6D01C491A480BF03DFA1B4918480BF0BE
:1064600039FA1A4916480BF035FA194914480BF055
:1064700031FA144912480BF02DFA1649164800F06B
:10648000E7F8164803F0D8FF154803F0DDFF15487C
:1064900003F0E2FF144B154A1B78154806CA03F0B7
:1064A000E9FF18B9BDE8104004F062B9024611498D
:1064B00003480BF05FFABDE8104004F059B900BF83
:1064C0001C740020FC9C0300249D0300449D0300D9
:1064D000509D030031630200C86300204460002027
:1064E0002C6000203460002028600020789D03008C
:1064F00004600020609D0300014B9B6E184700BFA5
:10650000AC9F0300014B00225A707047C863002003
:1065100000B583B02C230093044905482B232D227A
:1065200008F0CEFB03B05DF804FB00BF0030024072
:10653000E463002030B51E4B26222A252B242F2170
:106540005A609D60DC6059612D2040F201112E22BD
:106550002C25272483B018619A61DD611C6219859E
:106560002520012202250024586283F82C201D607A
:1065700083F82A4000F06AF800F07AFB2A460DF111
:1065800006014FF4E860ADF8064000F049FDBDF8A3
:10659000063042F21442934206D044F23440181AB4
:1065A00018BF012003B030BD204603B030BD00BF8E
:1065B000F8630020054B002202204FF0FF31C3E9B1
:1065C000081118609A6283F82C207047F863002045
:1065D000024A034B10681B68584070476000001067
:1065E000640000100A4A0B4B1168C1711168090A56
:1065F000817151884171D27802711A68C2701A682B
:10660000120A82705A884270DB780370704700BFAC
:10661000600000106400001000207047704700BF49
:10662000704700BF014808F07DBB00BFE463002055
:1066300038B5054CA4F1500554F8083D1B682046B8
:106640009847AC42F8D138BD84640020704700BF41
:1066500030B5224C257883B0ADB163787BB3A37895
:106660007BB3E3787BB323797BB363797BB3A37983
:106670007BB3E3797BB3237A23B1637A092513B122
:1066800003B030BD082543780161012262550570D1
:10669000134853B100230A4600EBC500009342F2B1
:1066A00010710BF093FC03B030BD009200EBC500FD
:1066B0000A4642F210710BF089FC03B030BD01258F
:1066C000E1E70225DFE70325DDE70425DBE7052514
:1066D000D9E70625D7E70725D5E700BF28640020BE
:1066E0003464002010B5064C037804EBC304204644
:1066F0000BF0B4FC2046BDE810400BF07BBC00BFA3
:1067000034640020024B007803EBC0000BF0A6BC01
:106710003464002010B4054C0378054A04EBC30030
:106720005DF8044B42F823100BF0C4BC3464002025
:106730008464002008F030BF10B5044608F02CFF38
:10674000001B10BD38B5084C04F150052046083434
:106750000BF034FCAC42F9D1BDE83840034A04499F
:10676000002010F007BB00BF346400200060002050
:10677000316602002DE9F04FDFF82483C54C98F80C
:10678000003083B00646002B00F0BA80C24D002EC8
:1067900061D040F2E93603E008F00AFF013E04D080
:1067A000A0690BF049F80128F6D0A06800210BF091
:1067B00025F895E80600B94808F0F8FA1D21B74811
:1067C00008F05CFB0921B54808F058FB2021B348CC
:1067D00008F054FB0021B14808F050FB0021AF48FD
:1067E00008F04CFB0746AD4808F042FBA0680121C9
:1067F0000BF004F840F2E93603E008F0D9FE013E60
:1068000004D0A0690BF018F80128F6D0A068002188
:106810000AF0F4FF95E80600A04808F0C7FA0D2139
:106820009E4808F02BFB09219C4808F027FB2021FB
:106830009A4808F023FB47F00801C9B2974808F0CE
:106840001DFB964808F014FBA068012103B0BDE8C9
:10685000F04F0AF0D3BF40F2E93603E008F0A8FE9B
:10686000013E04D0A0690AF0E7FF0128F6D0A06835
:1068700000210AF0C3FF95E80600884808F096FA60
:106880001D21864808F0FAFA0921844808F0F6FA32
:106890002021824808F0F2FA0021804808F0EEFA40
:1068A00000217E4808F0EAFA07467C4808F0E0FA42
:1068B000A06801210AF0A2FF40F2E93603E008F0E7
:1068C00077FE013E04D0A0690AF0B6FF0128F6D099
:1068D000A06800210AF092FF95E806006F4808F0D2
:1068E00065FA0D216D4808F0C9FA09216B4808F0D6
:1068F000C5FA2021694808F0C1FA07F0F7019DE7C1
:1069000040F2E93503E008F053FE013D04D0A069F0
:106910000AF092FF0128F6D05F4DA06800210AF02E
:106920006DFF95E806005D4808F040FA1D215B48C0
:1069300008F0A4FA0521594808F0A0FA8021574828
:1069400008F09CFA0021554808F098FA00215348B5
:1069500008F094FA01465148019108F089FAA068BC
:1069600001210AF04BFF40F2E93703E008F020FE76
:10697000013F04D0A0690AF05FFF0128F6D0A068AB
:1069800000210AF03BFF95E80600444808F00EFAA3
:106990001D21424808F072FA0521404808F06EFABD
:1069A00083213E4808F06AFA00213C4808F066FA64
:1069B00000213A4808F062FA8346384808F058FA4D
:1069C000A06801210AF01AFF40F2E93703E008F05D
:1069D000EFFD013F04D0A0690AF02EFF0128F6D098
:1069E000A06800210AF00AFF95E806002B4808F08D
:1069F000DDF91D21294808F041FA0521274808F052
:106A00003DFA8421254808F039FA0021234808F08E
:106A100035FA0021214808F031FA82461F4808F073
:106A200027FAA06801210AF0E9FE40F2E93703E005
:106A300008F0BEFD013F04D0A0690AF0FDFE012868
:106A4000F6D0A06800210AF0D9FE95E806001348A8
:106A500008F0ACF91D21114808F010FA05210F4883
:106A600008F00CFA85210D4808F008FA00210B48BF
:106A700008F004FA0021094808F000FA81460748A6
:106A800008F0F6F9A06801210AF0B8FE40F2E937F3
:106A90000CE000BFF8630020B0640020E463002035
:106AA000AC64002008F084FD013F04D0A0690AF026
:106AB000C3FE0128F6D0A06800210AF09FFE95E8E9
:106AC00006006A4808F072F90D21684808F0D6F906
:106AD0000521664808F0D2F98021644808F0CEF913
:106AE000019B624843F00801C9B208F0C7F95F484A
:106AF00008F0BEF9A06801210AF080FE40F2E937F3
:106B000003E008F055FD013F04D0A0690AF094FEAF
:106B10000128F6D0A06800210AF070FE95E8060072
:106B2000524808F043F90D21504808F0A7F9052113
:106B30004E4808F0A3F983214C4808F09FF90BF068
:106B4000F7014A4808F09AF9484808F091F9A06816
:106B500001210AF053FE40F2E93703E008F028FD76
:106B6000013F04D0A0690AF067FE0128F6D0A068B2
:106B700000210AF043FE95E806003C4808F016F9AB
:106B80000D213A4808F07AF90521384808F076F9DD
:106B90008421364808F072F90AF0F701334808F00A
:106BA0006DF9324808F064F9A06801210AF026FE68
:106BB00040F2E93703E008F0FBFC013F04D0A06994
:106BC0000AF03AFE0128F6D0A06800210AF016FE6D
:106BD00095E80600254808F0E9F80D21234808F05B
:106BE0004DF90521214808F049F985211F4808F091
:106BF00045F909F0F7011D4808F040F91B4808F075
:106C000037F9A06801210AF0F9FD40F2E93703E005
:106C100008F0CEFC013F04D0A0690AF00DFE012867
:106C2000F6D0A06800210AF0E9FD95E806000F48BB
:106C300008F0BCF80D210D4808F020F909210B4897
:106C400008F01CF92021094808F018F90621074826
:106C500008F014F9054808F00BF9A06801210AF0C2
:106C6000CDFD012388F8003091E500BFE4630020EA
:106C700070B5304C304EFFF7D5FC0025A06835705C
:106C800001210AF07BFDA06801210AF0B7FDA0698F
:106C900029460AF073FD606929460AF06FFD6068B5
:106CA00001210AF06BFD606801210AF0A7FD94F84C
:106CB0002C3053BB206A421C12D0636A01330FD0C0
:106CC00001210AF05BFD606A01210AF057FD94F88A
:106CD0002C502DB9606A431C02D0236A013321D1A4
:106CE000606801210AF04AFD002160680AF086FD13
:106CF0000A2008F05DFC606801210AF07FFD142085
:106D000008F056FC0023337070BD206A29460AF053
:106D100035FD606A01210AF031FD606A29460AF0FA
:106D20006DFDDDE701210AF069FD206A29460AF0C0
:106D300065FDD5E7F8630020AC640020024B0146F6
:106D40000422586908F0E2BAF863002010B50B4C31
:106D5000012160680AF012FD002160680AF04EFD12
:106D60000A2008F025FC606801210AF047FD142084
:106D700008F01EFC024B00221A7010BDF8630020C0
:106D8000AC64002038B5074D40F2E93403E008F068
:106D90000FFC013C04D0A8690AF04EFD0128F6D092
:106DA00038BD00BFF863002038B5174B174D0024DD
:106DB0001C70FFF733FC2146A8680AF01FFD144B36
:106DC000144893E8060007F0F1FFC021114808F0CD
:106DD00055F821460F4808F051F80E4808F048F8D9
:106DE000A86801210AF00AFD40F2E93403E008F046
:106DF000DFFB013C04D0A8690AF01EFD0128F6D093
:106E0000BDE83840FFF70CBCAC640020F8630020FC
:106E1000B0640020E46300202DE9F0411D4E1546CA
:106E200007460C4606F03EFCB06800210AF0E6FC7E
:106E3000194B1A4893E8060007F0B8FF174839467F
:106E400008F01CF865B1013DDFF8508014FA85F5B3
:106E5000013C14F8011F404608F010F8AC42F8D18C
:106E60000E4808F005F8B06801210AF0C7FC842F2D
:106E700001D1BDE8F08140F2E93403E008F098FB6D
:106E8000013CF6D0B0690AF0D7FC0128F6D0BDE885
:106E9000F08100BFF8630020B0640020E4630020AC
:106EA000F8B51D4E154607460C4606F0FBFBB068CC
:106EB00000210AF0A3FC194B194893E8060007F0DB
:106EC00075FF3946164807F0D9FF1548002107F02D
:106ED000D5FF65B1013D124F14FA85F5013C002143
:106EE000384607F0CBFF04F8010FAC42F7D10C484D
:106EF00007F0BEFFB06801210AF080FC40F2E934DF
:106F000003E008F055FB013C04D0B0690AF094FCA2
:106F10000128F6D0F8BD00BFF8630020B06400205F
:106F2000E4630020F8B51E4E074615460C4606F0F1
:106F3000B9FBB06800210AF061FC1A4B1A4893E8CB
:106F4000060007F033FF0D21174807F097FF390AB5
:106F5000154807F093FF1448F9B207F08FFF5DB1B1
:106F6000013D114F14FA85F5013C14F8011F384614
:106F700007F084FFAC42F8D10B4807F079FFB06806
:106F800001210AF03BFC40F2E93403E008F010FB79
:106F9000013C04D0B0690AF04FFC0128F6D0F8BDDE
:106FA000F8630020B0640020E463002070B5194D40
:106FB00004460E4606F076FBA86800210AF01EFC87
:106FC000154B164893E8060007F0F0FE0D21134814
:106FD00007F054FF210A114807F050FFE1B20F48B3
:106FE00007F04CFF31460D4807F048FF0B4807F00B
:106FF0003FFFA86801210AF001FC40F2E93403E0F8
:1070000008F0D6FA013C04D0A8690AF015FC012862
:10701000F6D070BDF8630020B0640020E463002067
:10702000F8B5214E074615460C4606F03BFBB06806
:1070300000210AF0E3FB1D4B1D4893E8060007F012
:10704000B5FE1D211A4807F019FF390A184807F044
:1070500015FFF9B2164807F011FF1548002107F097
:107060000DFF65B1013D124F14FA85F5013C002179
:10707000384607F003FF04F8010FAC42F7D10C4883
:1070800007F0F6FEB06801210AF0B8FB40F2E934DF
:1070900003E008F08DFA013C04D0B0690AF0CCFBA3
:1070A0000128F6D0F8BD00BFF8630020B0640020CE
:1070B000E463002070B51C4E044606F0F3FAB06895
:1070C00000210AF09BFB194B194893E8060007F0D2
:1070D0006DFE1D21164807F0D1FE210A144807F065
:1070E000CDFEE1B2124807F0C9FE0021104807F0BA
:1070F000C5FE00210E4807F0C1FE04460C4807F00B
:10710000B7FEB06801210AF079FB40F2E93503E0EF
:1071100008F04EFA013D04D0B0690AF08DFB012859
:10712000F6D0204670BD00BFF8630020B064002098
:10713000E4630020F8B51D4E174605460C4606F0E0
:10714000B1FAB06800210AF059FB194B194893E8CD
:10715000060007F02BFE0E21164807F08FFE15489B
:10716000294607F08BFE67B1BDB2013D114F14FAFD
:1071700085F5013C14F8011F384607F07FFEAC424C
:10718000F8D10C4807F074FEB06801210AF036FB14
:1071900040F2E93403E008F00BFA013C04D0B06996
:1071A0000AF04AFB0128F6D0F8BD00BFF8630020C2
:1071B000B0640020E4630020F8B51F4E1746054672
:1071C0000C4606F06FFAB06800210AF017FB1B4B63
:1071D0001B4893E8060007F0E9FD1E21184807F058
:1071E0004DFE2946164807F049FE1548002107F0D4
:1071F00045FE6FB1BDB2013D114F14FA85F5013C5A
:107200000021384607F03AFE04F8010FAC42F7D1EE
:107210000B4807F02DFEB06801210AF0EFFA40F2AA
:10722000E93403E008F0C4F9013C04D0B0690AF085
:1072300003FB0128F6D0F8BDF8630020B0640020FD
:10724000E4630020022106F017BC00BF034B1B685B
:10725000022B0CBF02200120704700BFF863002002
:1072600010B50A4C94F82A301BB994F82C303BB96D
:1072700010BD0120FFF77EFA94F82C30002BF7D0D8
:10728000606A0121BDE810400AF0B8BAF863002036
:1072900010B50A4C94F82A301BB994F82C303BB93D
:1072A00010BD0020FFF766FA94F82C30002BF7D0C1
:1072B000606A0021BDE810400AF0A0BAF86300201F
:1072C00038B50A4C94F82C502DB9606A431C02D092
:1072D000236A013300D138BD01210AF08FFA206AF8
:1072E0002946BDE838400AF089BA00BFF86300209B
:1072F00010B5094C94F82C1029B9606A431C02D0CF
:10730000236A013300D110BD0AF078FA206A012106
:10731000BDE810400AF072BAF8630020034B044A3B
:107320001A604FF480729A80704700BFB0640020EA
:1073300080841E00F8B5244B244A1D6B1563D3E9E5
:10734000090102F1240484E80300198811805C6BB0
:1073500093F821109B8D82F8211093851C491D4BB9
:1073600054631D4D1D4A1E4E1E4F30781E4E002484
:107370000C601C701D491E4B2C6014701D4D1E4A64
:107380000C701C701D492C70012313701C4D1D4A7C
:107390000B70022113702B803C70346003F016FBDD
:1073A000194B1A481A491B4A1B6804700C70147058
:1073B0001BB15C629B6A002BFBD11749174A002363
:1073C0000B701370F8BD00BFF4640020BC64002093
:1073D000406700202A6900207C6500202467002087
:1073E000906600202D69002094660020BC69002072
:1073F000B86900202E6900204C6000204E600020FB
:10740000726700204D60002004690020776800202A
:107410007067002029690020BA690020806500207B
:1074200008B50C48FFF76EF90B4B1B783BB10B4AC4
:107430000B491368012023F0040313600870094B03
:107440001B78022B00D008BD074A137843F01003C5
:10745000137008BD28670020776800202C65002085
:107460002467002008690020B86400202DE9F04F4F
:107470008BB0914202934CD2DFF810B3DFF810A327
:107480000F4691460546EB5D7C1C023BE4B2082B9F
:107490003FD8DFE813F058017F013D010801DF000C
:1074A000A3008000410009003B1DF91CDBB2BA1C9F
:1074B000C9B2EB5C695C285D8DF81C00D2B21B047C
:1074C000AA5C9BF8000043EA01231343642202FBF9
:1074D00003F307A9089303F0F7FAA34BA3491B781A
:1074E0000A78C3F18003DBB205379342FFB240F262
:1074F0003581531C9E4CDBB20A260AF80260B9455E
:1075000002F102024FF001060AF803000A70267029
:10751000B9D80BB0BDE8F08F2B5D9BF800000022BE
:107520008DF81C2013F0200218BF01228DF81D20B9
:10753000DA0648BF012203F00F0307A948BF8DF800
:107540001C208DF81E3003F0B7FA02370130FFB26D
:1075500000F0048187499DF81E20834B8A5C1B78CC
:107560008249BDF81C0007EE902A834AF8EE677A3C
:10757000C3F18003C2ED0C7A90850A78DBB29342A6
:1075800040F2EC807A4B012410191C7009230AF890
:1075900002300870E2E02A5D734B77491B7873482C
:1075A00002F00F02012A38BF01224FF47A7404FB63
:1075B00002F21619C1E90426C3F180030278DBB296
:1075C00002379342FFB240F2C980694B012411197E
:1075D0001C7008230AF802300170BFE03B1DF91C43
:1075E000DBB2C9B2BA1CEB5C6E5C295D8DF8181079
:1075F000D2B21B04AA5C9BF80000791D43EA062363
:10760000C9B21343642202FB03F36C5C079307AA1D
:10761000002305A9059208938DF8244003F044FA4D
:10762000514B52491B780A78C3F18003DBB2013B0E
:1076300006379A42FFB280F29180541C07234C4EC9
:107640000AF80230E4B2931C01220AF804000B701D
:10765000327083E0494B1B68002B00F019811B68D6
:10766000002B00F0158198473F4B40491B780A7862
:10767000C3F18003DBB2023B9A4280F20B81531CC0
:10768000961CDBB2F6B24FF0060C2746384C0AF8CF
:1076900002C00AF80300D31C02980AF8060001226F
:1076A0000B7022705AE03B1DFA1CDBB2D2B2B91C3F
:1076B000EB5CA85C2A5DC9B21B04695C43EA002349
:1076C0000B43642101FB03F3C2F302169BF8000095
:1076D000089302F00F0207A98DF81D608DF81C2099
:1076E00003F0DAF900F007030537072BFFB200F0CB
:1076F000C3801D4B1D491B780A78C3F18003DBB2A0
:10770000013B9A422ADA531C194CDBB20526F4E6F7
:107710001B49154B2A5D0A7014481B78194E01212C
:1077200001FA02F2C3F1800332800278DBB2023741
:107730009342FFB212D90E4B5418197004230AF861
:10774000023004700AE0104B00225A70BA1C295D06
:107750001972D2B20337AA5C5A72FFB2B9453FF62A
:1077600092AE0BB0BDE8F08FB86900202E69002002
:1077700029690020809D0300BC64002074670020FC
:10778000BC690020726700204C65002090660020D4
:1077900084680020404B414E19788DF8221005A9CD
:1077A0007378327896F82CC001910DF11301009195
:1077B000601E96F820108DF82330A9EB07072844A7
:1077C0008DF820700DF1120300278DF824208DF81C
:1077D000251007900DF111029BF800008DF821C0D3
:1077E00007A98DF811708DF812708DF813708DF84F
:1077F000147003F041F900F00703072B31D09DF816
:107800001420274B0392A3FB023C042A4FEA9C0C52
:1078100022D9244B1F78244B1A78244BC7F18007B8
:10782000FFB293F800E0013F00214FF0030801315F
:10783000531CBA42CEB2DBB207DA0AF80280023237
:107840000AF80300D2B24FF0010EB445EFD8164B40
:107850001A70164B83F800E0039B5F1E3C44E7B2AE
:107860007CE79DF811309DF8122073709DF813305D
:10787000327086F82030C2E7084B9DF81C2008992A
:1078800083F828209DF81D20596283F8212030E7D5
:10789000FF20E9E6274661E7BB690020BC640020C1
:1078A000CDCCCCCCB86900202E69002029690020FD
:1078B000F0B5394D85B0FEF73DFF2B78022B04461D
:1078C00002D0364B1B6B9847354B1A78002A37D1BC
:1078D000344B354D354819786A70042242700029BE
:1078E0002BD01A78324D334E42F010021A701B78AA
:1078F00013F0080304D02D4B1B78B3FA83F35B0914
:107900002D4A2E492E4F127809788DF808203A70AA
:107910002C4A8DF809103078137002A9039403F0F3
:107920004FF8294A2B7814602BB928491E480A7849
:107930004370531C0B7005B0F0BD01221A70D0E7E4
:10794000234B24481968244FFEF7E4FE2148FEF734
:10795000C9FE39682148FEF7DDFE2048FEF7C2FE69
:107960002B78134D022B01D02B7893B1114E12239B
:1079700001A930788DF8043003F01AF83B6801460D
:1079800019441748FEF7C6FE1548FEF7ABFE054B37
:10799000ADE7084E034BAAE708690020AC9F03003F
:1079A0004D600020B8640020386500204C65002040
:1079B0007768002090660020BA6900202D690020B9
:1079C0008065002024690020306900202A69002099
:1079D000D4660020DC660020D8660020F466002013
:1079E0002867002070B51848184C194DFEF78AFE1C
:1079F000184B19491B78194A0978194812782170CF
:107A0000A3F10203B3FA83F395F82D106E6A217483
:107A10005B09A374627401230078124A66602146F0
:107A2000E37403F011F840B1A37C3BB10E4B00208E
:107A30009B6B98470D4BE27C1A7070BD0A4BE8684F
:107A40009B6B9847F6E700BFF46600205C67002058
:107A5000BC64002008690020BA6900204667002045
:107A600090660020C0660020AC9F0300B96900202A
:107A700010B51B4C2378022B2ED01A4B1B6B98474A
:107A8000194B1B78B3B9194B1B7813B1184B032250
:107A90005A70184A184B106803225A70FEF74CFEB1
:107AA000164B1B68984204D3154A137843F0100311
:107AB000137010BD0D4B1B7813B10D4B04225A707F
:107AC00023780D4A0421022B5170F2D00C4A13780E
:107AD00043F010031370ECE7FFF784FFD0E700BF1B
:107AE00008690020AC9F0300B96900207768002076
:107AF00038650020306900204C650020D8660020E1
:107B0000B86400200A4B1B78022B10B50DD0094B2E
:107B10001B6B98470849094C0B780948022243F02F
:107B200010030B706270427010BDFFF75BFFF1E74E
:107B300008690020AC9F0300B8640020386500206D
:107B40004C65002008B5194B1B78022B2BD0184B25
:107B50001B6B9847174B1B78B3B9174B1B7813B1A6
:107B6000164B05225A70164A164B106805225A7099
:107B7000FEF7E2FD144B1B68984204D3134A1378B6
:107B800043F01003137008BD0B4B1B7813B10B4B64
:107B900006225A700D4A0B491378062043F0100351
:107BA0001370487008BDFFF71DFFD3E70869002078
:107BB000AC9F0300B9690020776800203865002079
:107BC000306900204C650020D8660020B864002091
:107BD00070B51A481A4C1B4D1B4E82B0FEF792FD31
:107BE0001A4B1B4A1B781B481278237095F82130DA
:107BF0001949E37095F82D3000782374022A4FF06C
:107C00000003607463820B7001D1736B9847134B50
:107C1000134A18780A4902F017FFA37C33B9B36BF3
:107C2000E868019302B0BDE870401847B36B019358
:107C3000002002B0BDE87040184700BFDC6600209D
:107C400048670020BC640020AC9F0300BA69002094
:107C50000869002046670020B9690020906600206E
:107C6000C06600202DE9F04F2DED028BB74EB84CC9
:107C7000B84DB94F3678667493B05FFA83FB002332
:107C80000646E28163800F936371A360A381A374AE
:107C9000636123703B7184F810B02B6B0D469847DD
:107CA000AE48FEF72FFD96F800904FEA5913013BBE
:107CB000062B00F2B080DFE813F0C900AE00070029
:107CC000AE000700AE00FA00A54BA64A1B7892F85A
:107CD0002D2021798DF83A2009228DF839108DF860
:107CE000382013B10A238DF838309F4B0EA918782D
:107CF00002F05EFEA5F10D031BB223EAE37383429B
:107D000000F2F780994BD6F801A01B68534500F0AC
:107D1000BB81974BD3F80080B8F1000F00F072825E
:107D2000434603E09B6A002B00F06C821A685245C0
:107D3000F8D19846043308EE103A08F114030C9376
:107D4000D8F82430059301230B93711996F807E0B6
:107D500011F8023C11F803CCB27911F8040C11F8B7
:107D6000011C1B0442EA0E2243EA0C2E059B96F8E6
:107D700005C0CDF818C0D21A40EA0E0013B240EA8E
:107D80000161002B90B20CF00F020791089009924C
:107D9000C0F20481059B0344184605932B1F194626
:107DA0000A930FAA0123019089B20292009318EE60
:107DB000102A5346304601F0C5FE0F9B07998B42AF
:107DC00000F00681684B0EA9187811238DF8383021
:107DD00002F0EEFD089B8342C0F00782654D664EBF
:107DE0002B6805993278616143F040030A212B60CA
:107DF0006170002A00F089806048FEF783FC3378C8
:107E0000002B00F082802B685D4A23F004030121DF
:107E10002B60117079E0574D574E2B68327843F044
:107E2000400301272B606770002A40F08180554F86
:107E300055483B7823F0120343F0120301213B70B5
:107E4000FEF768FC5048FEF74DFC42E04F4F3B7890
:107E5000002B4ED14E4CDFF84081691E701CD8F8C3
:107E60000020631C89B202F08FF8291FD8F8002087
:107E700084F80090204689B20FAB02F063F86119D4
:107E80000F9A11F8023C11F8036C11F8040C11F868
:107E9000011C1B0443EA0623034343EA01639A429D
:107EA00000F045813B4B374F07225A7011E0DFF855
:107EB000E080344F2A46711C404605F0CBFF3B78EA
:107EC000C4F80880013D43F0020303223B70257390
:107ED00022803B782C4843F0100301213B70FEF7D1
:107EE00019FC2948FEF7FEFB13B0BDEC028BBDE880
:107EF000F08F204D204E2B68327843F0400301274D
:107F00002B606770002A40F0D7801E4A1E48137805
:107F100023F0120343F0120301211370FEF7FAFB62
:107F20001948FEF7DFFB13B0BDEC028BBDE8F08F04
:107F30001248FEF7E7FB3378002B3FF478AF2B684D
:107F40000F4A23F004032B60177070E7B969002013
:107F5000BC660020AC9F030038650020F46600205A
:107F600046670020BC64002090660020A8660020C0
:107F7000046900202C650020776800202867002015
:107F800024670020B86400200C6900202D690020BF
:107F9000786700204C65002088650020059A02F56E
:107FA0008032D118281F0FAA01230D910A90019148
:107FB000029281B218EE102A00933046534601F027
:107FC000C1FD0F9B079A93427FF4FCAE0D9B059376
:107FD000B34B0EA9187811238DF8383002F0E8FC65
:107FE000089B8342BFF4FAAE059A6261069ADFF8F5
:107FF00008C3AC490B98A0700023C2F30012CCF860
:1080000000306370A36023737B700B706271002873
:108010007BD1A54AA548116809F0E009B9F1A00F84
:108020003ED023700370059B994200F0FD804FF015
:108030000008059B13603B78012B74D09C4B0022F9
:108040001A7009990A9B01F108029B1A002B41DD65
:1080500001F10909B35CE370A5EB0905043DEDB23C
:10806000002B40F0A680069B13F00F03079300F04F
:10807000458101238F4F3A789B0043F0020322F0A1
:10808000060213433B7024E7874B8B4A1B6805931A
:108090008A4B0C9208EE103A00230B93984654E654
:1080A000012303702370059B9942C0D1B3F10008EE
:1080B00018BF4FF00108BCE78148FEF723FB337877
:1080C000002B3FF422AF2B687E4A23F004032B6081
:1080D00017701AE7069B1B0711D1B8F1000FC8D122
:1080E000069B13F0200540F0AF80774A774B12785B
:1080F0001B783D719A4200F216812B46BAE75B4627
:1081000030460821FFF7B2F9E7E70222D8F8243019
:108110002270059A934200F09F80059BC8F8243096
:108120004FF0000887E7069B98068AD586E7684ADD
:10813000614BD8F8000012880093611C5F4B654EBC
:1081400001F044FFA379617994F804C06248E27AAF
:108150001B0443EA012343EA0C0360490360237BC9
:10816000D4F80700086013F00F03C2F3021102F005
:108170000F0286F8211086F8282050D04FF47A722A
:1081800002FB03F39C18464A33611078544B10935A
:1081900010A9113D8DF84450746102F027FC514B39
:1081A000514A5B787370002101233B705170414F3D
:1081B0008FE6069B19076DD14C49059B01934FF043
:1081C000010B06EB090002910E460C9ACDF800B0A7
:1081D0005346294601F0AEFEB8F1000F7FF449AFD7
:1081E000A660257384F80DB07AE7414D414E2B68A7
:1081F000327843F040030C212B606170002A3FF479
:1082000084AEF9E53A4D3B4E2B68327843F040039B
:108210000B212B606170002A3FF477AEECE54FF440
:10822000FA644FF47A73AEE7002B3FF400AF304DA1
:10823000304E2B68327843F0400308212B60617088
:10824000002A3FF462AED7E501231D483B71A374B9
:10825000FEF758FA00230DE7002A3FF45EAF244DE5
:10826000244E2B68327843F0400308212B60617064
:10827000002A3FF44AAE1248FEF744FA3378002B46
:108280003FF443AE2B680F4A23F004032B600B9B93
:1082900013703AE65B4608213046FFF7E7F88BE7B4
:1082A00090660020B86900204067002070670020B9
:1082B0002E690020B864002098660020AC6600207B
:1082C00028670020246700204E6000204C600020BA
:1082D00044670020BC64002078650020A866002068
:1082E00085670020F46400204C650020786700203A
:1082F0002C650020776800207C650020059B019399
:1083000006EB090001210A4E009118EE102A53468F
:108310002946029601F00EFE07995B462A46304632
:10832000FFF7A4F8D9E60348FEF7ECF92B46A1E6DF
:1083300078670020286700202DE9F04FDFF8E4C2BD
:10834000A54E8BB00024BDF850E034800F46904617
:108350001D4606948CF80040002B00F098805FFAD0
:108360008EF29E4C037823700378DFF8BC925B0991
:1083700089F80020072B05D8DFE803F09D040C04E2
:108380000904048C022210460BB0BDE8F08F0123D3
:108390008CF80030924B1B78002B00F08681914BBB
:1083A00039781A8890480090DFF880C2D0F800E051
:1083B0009CF80000CDF820E052BAC909ADF824209D
:1083C00093F82C208DF826208DF81D105A1C4FF0A4
:1083D000010C07A98DF81CC002F016FB834A3B78FC
:1083E000117860F386133B7029B1DBB243F02003B0
:1083F00000213B7011707E4B7E491B6808786370CA
:10840000190A1A0CDFF828A2E2701B0E2371A17062
:10841000DFF820B2784A3978BAF800301278617102
:10842000E3807649584405F015FD7249724A0B788D
:1084300012781344DBB20B70002D7DD099F8001038
:10844000002979D06E4A05921278002A00F0F48053
:108450000F2B00F252813A780493C2F303001844C0
:1084600060F303023A7098B26271002B6BD0421E27
:1084700092B20132594663480EF00EFD049B03F19F
:108480000801CAB20492059900220A70D8E01A467F
:108490009E4666E7002D4AD0002A3FF474AF5FFA8B
:1084A0008EF25948294605F0D5FC99F80030013381
:1084B0003380002267E7554B53481968544D012318
:1084C0000822338005F002FD3388524A08339BB2FC
:1084D00011683380E018082205F0F8FC33884E4A12
:1084E000083392693380904731884C4B60541A6846
:1084F0004F1C83B22B80BFB28D1CADB21B0AE3555B
:10850000E9B23648358006AB01F01CFD3388069A87
:10851000E2545D1C981CADB2D91C170A80B289B216
:108520006755150C120E2554043362543380002213
:1085300010460BB0BDE8F08F002B40F0BE80304BF2
:1085400099F800100593059A002313702A4A002316
:10855000137008230493E5B1D9B1049B5F1C04F8A0
:108560000380FFB2B8F1000F40F0B380E31902932B
:10857000DAF8003001931F4A1D4BCDF800801B68CC
:1085800082F800802846264A01F016FB99F8001070
:108590000497049B11480B441946DAF80030019304
:1085A000134B318006AA00251B68029200951C4AD5
:1085B00001F0C8FA3288069BA3541444111D180C0C
:1085C0002A461F0AA0701B0E104631806770E370A8
:1085D0000BB0BDE8F08F00BF266900208C6500203D
:1085E0002D690020BC6400207C650020706700209D
:1085F000A86600202E690020B86900203869002094
:1086000029690020946500208D6500208465002084
:10861000446700208C660020AC9F03008865002022
:10862000AC66002077680020286900209066002052
:108630009466002084680020002B87D008220492D2
:108640000021DFF8DCC00A461BF80270F81E07287C
:1086500011D8DFE800F01D1004271D20100401329E
:10866000481CD2B2C0B21BF802E00CF80170023113
:108670000CF800E0C9B20132D2B29342E4D8234BE5
:108680001970B9B1059A99F800100123137062E7C7
:108690000132D2B2EFE7481C4FF008070CF8017026
:1086A000C1B2E8E70232D2B2E5E7072210460BB0CA
:1086B000BDE8F08F99F800104DE7154A0592127841
:1086C000C2B10822134D89F800304FF0000804921F
:1086D000D9E6DAF80030E21902920022CDE900234F
:1086E0000D4B0E4A1B68284601F066FA99F80010F7
:1086F00004974EE708220492C5E6082289F8003064
:108700004FF000085D460492BDE600BFB869002046
:108710002969002084680020A8660020986600204F
:1087200038690020F0B5294C294B226B294D616B2B
:108730001B7887B0039262788DF808000491207846
:1087400029888DF8092000228DF80A00ADF8141050
:108750008DF807203BB1204A204B12781B788DF80A
:1087600008208DF809301E4F1E4A1F4E10783B46D8
:108770000DF1070202A902F071F91C4A63783F6803
:1087800093709DF807401A48976001234FF47A715F
:1087900073705370D4707760FDF7BCFF1448FDF719
:1087A000A1FF144B1B781BB9134A137801331370C4
:1087B000124B2978DB6A12489847124A1368002046
:1087C00043F00103136007B0F0BD00BFBC6400209C
:1087D000626D002026690020636D0020A0600020EB
:1087E00030650020906600204C6500203865002030
:1087F0000C6900202D6900207C680020AC9F0300DC
:108800008C6500202C6500202DE9F043644B1B781B
:1088100089B00022FF2B039200F0BE80614E002B36
:108820007ED0614BDFF8C491604F6148197899F8A8
:1088300000203B78DFF8B88100688DF817108DF8BC
:1088400014208DF81630FDF777FF5A4DD8F8002028
:10885000594B5A4C1B788DF81530CDE9060205A905
:10886000287802F041F9564BD8F800001B8832688E
:1088700054493F7809688DF81E70013B00FB0323C3
:1088800099F800006278504FDFF8688133600593F3
:108890008DF81D008DF81C20069104E098F9013038
:1088A00063708DF81C300096287803AB3A4605A912
:1088B00002F020F90028F1D02E7894F9213094F9B3
:1088C000012094F82D10DFF83081404F304602F03F
:1088D0002FF96368227ACDF8008041B2304602F069
:1088E000A3F800976368227A94F92810287802F098
:1088F0009BF899F80030ABB9D4E90623D8F80C609E
:10890000FD68334933482B440B60039932440260BD
:1089100069BB2D4B1878FFF705FF09B0BDE8F08360
:1089200033607EE72C4B94F901202C4E2C481B78A9
:1089300094F82C108DF811200922367890F80090C8
:108940008DF812108DF8102013B10A238DF8103015
:10895000287804A902F02CF806EB090380B29842AB
:1089600001D3FF2B12D9082009B0BDE8F0831D4ABE
:108970001D48136843F010031360FDF7CBFE1A483F
:10898000FDF7B0FE002009B0BDE8F083D4E9042370
:10899000D8F80C60FD68B4E7092009B0BDE8F083A1
:1089A000BC690020786800208065002034650020C4
:1089B000346900209066002024690020BC640020F7
:1089C0007267002030690020BA6900205C670020CF
:1089D000D8660020D4660020466700202869002061
:1089E0002E6900202C6500200C6700202D690020D6
:1089F00030650020F46400204867002070B51B48F3
:108A000086B0FDF77FFE1A4A1A491368097823F0E9
:108A1000100313600B0702D5174B1C781CB1FFF72E
:108A2000F3FE06B070BDFEF785FC144B144A1B78AC
:108A30001078144E013305A9ADF8143002F04CF84B
:108A4000114B70701B780094254663F3C7152246BE
:108A5000234604A903A88DF80C408DF81050FFF7A9
:108A60006BFCFFF7D1FE06B070BD00BF0C670020A5
:108A70002C650020B86400204C6500207C68002034
:108A800090660020BC640020BB690020F0B5984DC2
:108A90009848994E83B0FDF735FE2B783468DA0696
:108AA00049D5670644BF24F04104346013F0090F30
:108AB0007CD0924A5178022900F08280904948780F
:108AC00002287DD08F4A1278002A6FD11A0700F150
:108AD000D6808D498D4A91F820001178884240F265
:108AE000E38013F0020359D08949097800201070FF
:108AF00019B988490A6801320A6024F00104346017
:108B0000002B6ED07D4A1379002B00F0B580824B8C
:108B100019787F4BDFF818C218787A4F00238CF849
:108B200000303B7018B97B4803680133036024F0C0
:108B3000010434605171A70744BF24F0020434607B
:108B4000002C6ED12B78DE0709D5744B6B481B685F
:108B50001B6898472B7864F300032B70DBB21C076B
:108B600012D42B786FF304132B702B78980709D548
:108B70006B4A1278022A5DD059071BD52B7823F057
:108B800006032B7003B0F0BD644B5D481B689B6807
:108B900098472B786FF3C3032B70E2E72A7863F3CF
:108BA00004122A70FFF72AFF2B78346803F00203BF
:108BB000BBB1A7E7594B5B481B685B689847DDE78B
:108BC0005549594F09785171002024F0010438703B
:108BD000107190609807346003D5544B1B788B421A
:108BE00097D3534B1A78002AA5D014F01002A2D1C3
:108BF000494F4E491A703B780A789A4220D9082B7F
:108C00001ED80133DBB23B70DB0700F19980FFF720
:108C1000FBFD002853D12B78346860F304132B70CC
:108C200089E734484FF47A71FDF774FD3148FDF758
:108C300059FD9AE7FEF7D6FE2B7859079ED4B9E77F
:108C40003C4B0121187801F0C1FE314B2B4A1978B9
:108C50003B7834685371002333481371294A0370F9
:108C600024F001041370346000297FF464AF294AB2
:108C70001368013313605EE7274B1978ADE70A7874
:108C8000002A7FF426AF2C4F3F788F72002869D1DD
:108C900020491E4A086024F0010403F002033460F6
:108CA0001070002B9DD02DE713F002037FF41CAF52
:108CB00022481D4F01683B700131016014E7124AE0
:108CC0000E4B387852781249346858719A700920DE
:108CD000002258701A7114480A4B0978027024F067
:108CE00001041A70346000297FF425AFBFE700BF8C
:108CF000B86400200C6900202C6500203865002035
:108D00004C65002077680020BC6400202A690020A0
:108D10002B690020946600204E60002080680020AF
:108D200008690020BC6600202E6900204C600020ED
:108D300024670020906600207C6800207C6500206D
:108D4000164C174A94F82C3010788DF8063062785B
:108D50008DF80520202301A98DF8043001F028FEAC
:108D6000607054E70F490978B94208D824F001042B
:108D700003F002033460002B3FF433AFC2E62B78DC
:108D800062F304132B70FFF739FE2B78346803F07D
:108D90000203002B3FF425AFB4E600BFBC64002003
:108DA000906600202C690020002800F029812DE920
:108DB000F041036882B00446002B00F01D81436837
:108DC000002B00F019818368002B00F015811046FC
:108DD0000E46154601F0E6FD002800F00981894F96
:108DE00089498A4B8A4A0C601E603D7089498A4BCA
:108DF000DFF884E2DFF884C2DFF88482874C2846FB
:108E000000251570864A0D70012601A91D600B23EF
:108E1000CEF800508CF8005088F80050256016708D
:108E20008DF8043001F0C4FD03465B1B7D4A3878A1
:108E30007D4CDFF8508218BF0123137001A908236D
:108E40008DF8043001F0B4FD034601A92370387891
:108E500005238DF8043001F0ABFD034601A96370D2
:108E600038780C238DF8043001F0A2FD034601A9E7
:108E7000E36038780D238DF8043001F099FD034646
:108E800001A9236138780E238DF8043001F090FD9C
:108E9000034601A9636138780F238DF8043001F08F
:108EA00087FD034601A9A361387810238DF80430AB
:108EB00001F07EFD034601A9E361387813238DF8A4
:108EC000043001F075FD034601A984F8213038789B
:108ED00014238DF8043001F06BFD034601A9636291
:108EE000387815238DF8043001F062FD034601A99E
:108EF00084F8283038781A238DF8043001F058FDB2
:108F0000034601A984F82C3038781B238DF80430EF
:108F100001F04EFD034601A984F82D3038781C235A
:108F20008DF8043001F044FD034601A9236338782D
:108F30001D238DF8043001F03BFD294603463878A7
:108F4000636301F043FDD4E90372384B84F8206079
:108F5000D4E905011A61E269DF60C3E906125861CC
:108F60000A27062083F820605F601872676020720D
:108F7000FEF7E0F92E492F482F4C304FFDF768FBE4
:108F80002C484FF47A71FDF7C5FB2D492D48FDF7AC
:108F90005FFB2D492D48FDF75BFB2D492D48FDF763
:108FA00057FB2D492D48FDF753FBFDF7C3FB014649
:108FB0002B482C4B2C4A046083602C4C2C4B0761B3
:108FC0004460C360D8F8003011609847D8F8183072
:108FD000984704F019FF274AD8F8603016703046D9
:108FE0009847D8F830309847284602B0BDE8F0815D
:108FF0000A2002B0BDE8F081032002B0BDE8F08194
:10900000032070479066002080680020746700206D
:109010000869002046670020306900207868002039
:109020002C69002034650020F4640020BC6400201A
:109030008D8A02000C690020B1780200457B020095
:10904000FD8902000C670020D17B0200DC66002055
:10905000E5790200F46600202174020028670020F0
:1090600058650020657C020034690020057B020001
:10907000717A0200916600202C6500207C68002037
:10908000B8640020AC9F03002DE9F04FDFF808B171
:10909000DFF808A13C4B9AF800209BF8004089B00B
:1090A00014445A781B788DF80A208DF80B3000296B
:1090B00065D0364E364A3388DFF8E48096F82CC007
:1090C000DFF8E0908DF81EC00D4632490978009215
:1090D00012688DF815105BBAADF81C304FF0000C1B
:1090E0000DF10B03069205A90DF10A02074698F847
:1090F00000008DF814C001F087FC96F82C2099F838
:1091000000309DF80A108DF80E200922E4B28DF887
:109110000D108DF80C2013B10A238DF80C3098F83F
:10912000000003A901F044FCC0B2A042687023D241
:1091300000238BF800308AF80030287096F82C2035
:1091400099F800309DF90A108DF8122009228DF847
:1091500011108DF8102013B10A238DF8103098F8F3
:10916000000004A901F024FC80B2B84234BF0820FA
:10917000002009B0BDE8F08F001BC0B2DDE703207E
:1091800009B0BDE8F08F00BFF4640020BC6400208B
:109190007C650020BB6900202E690020B869002092
:1091A0009066002046670020B8B110B504460078EC
:1091B00082B01D2800F2B080DFE800F0AAA5A09BD5
:1091C00096928E89848179716E635D58534E4944BD
:1091D0003F3A35302B26211C1711032070474F4B87
:1091E0005B6B6360002002B010BD4C4B1B7A237197
:1091F0000020F8E7494B5B6863600020F3E7484BC9
:109200001B6863600020EEE7464B1B68636000202C
:10921000E9E7454B1B6863600020E4E7434B1B789C
:1092200023710020DFE73D4B1B7823710020DAE734
:109230003A4B5B7823710020D5E73C4B5B78237178
:109240000020D0E7354BDB6963600020CBE7334B70
:109250009B6963600020C6E7304B5B696360002058
:10926000C1E72E4B1B6963600020BCE72B4BDB681A
:1092700063600020B7E7294B93F82030237100206A
:10928000B1E72B4A172310788DF8043001A901F0BB
:109290008FFB60600020A6E7254A1623F3E7254BE5
:1092A00093E80300043484E8030000209BE7224B8A
:1092B00093E80300043484E80300002093E71C4A89
:1092C0001923E0E71D4B1B78237100208BE71C4B13
:1092D0001B782371002086E71A4B6360002082E729
:1092E000194B636000207EE7184B1B686360002009
:1092F00079E7174B1B686360002074E7154B1B78F8
:10930000237100206FE7144B1B78237100206AE75C
:10931000124B1B78237166E7022064E7BC640020CF
:10932000046900204067002094660020F464002057
:109330009066002018650020E06400204667002049
:109340009166002098660020AC660020A866002088
:1093500078650020BB6900202D6900200869002085
:10936000F0B585B0002838D09F4B1B68DB0724D4AC
:10937000057804461D2D00F28E81DFE815F07D0191
:10938000780173016E0169015F0155012D0128010A
:109390008C01DC00C400B7002200AD00A800A300CF
:1093A0009E00990094008300720061004F004A0003
:1093B00045008C013E00370032000125284605B0EB
:1093C000F0BD8A4A436802931078012302A98DF800
:1093D0000C3001F011FB002830D10325284605B0E0
:1093E000F0BD834B42685A630025E7E78149804A14
:1093F00003790B7213720025E0E77E497C4A4368CB
:109400004B6053600025D9E77B4B42681A6000250A
:10941000D4E77A4B42681A600025CFE7734A037994
:1094200010788DF8083008220DEB020101F0D4FA13
:109430000028D2D06F4B9DF808201A700025BDE798
:109440006A4A037910788DF80830072202A901F0E2
:10945000C3FA0028C1D0664B9DF808201A70002579
:10946000ACE7624A037910788DF80830042202A92B
:1094700001F0B2FA0028B0D05D4B9DF808205A7078
:1094800000259BE7594A037910788DF808300522AA
:1094900002A901F0A1FA00289FD0564B9DF80820A0
:1094A0005A7000258AE7524B4268DA61002585E749
:1094B0004F4B42689A61002580E74D4B42685A61E4
:1094C00000257BE74A4B42681A61002576E7484B46
:1094D0004268DA60002571E703795A1E0E2A3FF6CA
:1094E0007CAF434A002582F8203067E73F4A436853
:1094F00002931078002302A98DF80C3001F07CFA59
:1095000000289BD169E73A4A384B92F82D20187809
:109510008DF80920237A8DF80830062202A901F07F
:109520005BFA00283FF459AFD4E90101344B002520
:1095300083E8030042E72E4D2C4E95F82D20237A28
:109540008DF8092030788DF80830062202A901F044
:1095500043FA00283FF441AF2A4BA1681A786068AB
:1095600005F12403022A83E803007FF467AF264B4A
:109570001B78002B3FF462AF244C009430786B686A
:109580002A7A95F9281001F04FFA214B214A1B78CD
:10959000696A237040F20113307895F82D701678BF
:1095A00061601D4A638221462774667401F04CFA9B
:1095B00000283FF412AFA37C002B78D1174BE8684A
:1095C0009B6B9847164BE27C1A700025F6E6114B10
:1095D00002791A700025F1E6104B124A00791B6ED1
:1095E000107000259847E9E62C6500209066002061
:1095F000BC640020F46400204067002094660020D2
:1096000018650020086900202D6900205C67002093
:10961000BA69002046670020C0660020AC9F0300A6
:10962000B969002091660020416800293FF4D5AE59
:109630002148102204F00EFC0025BFE641680029F5
:109640003FF4CBAE1D48102204F004FC0025B5E623
:109650001B4B42681A600025B0E61A4B42681A603C
:109660000025ABE6184B02791A700025A6E6174BC9
:1096700002791A700025A1E60379154A012B1370AF
:1096800011D0022B09D0002B7FF498AE114A126B37
:109690001D46904792E6022590E60F4B00221A7075
:1096A000FEF7A0F98AE60B4B1B6B984786E6094B41
:1096B00000209B6B984785E798660020AC660020E9
:1096C000A866002078650020BB6900202D69002075
:1096D00008690020AC9F03007768002070B50C4C2F
:1096E00086B0266801AC84E80E00F207054601D575
:1096F000B30609D5074B049418788DF8145004A9C3
:1097000001F008FA06B070BD012006B070BD00BFC0
:109710002C65002090660020002800F0E1802DE9F3
:10972000F041774D296811F001018AB003D0012082
:109730000AB0BDE8F081734E04460C22304604F0B6
:10974000D7FB207801237370032800F2D580DFE86F
:1097500000F0583F20026C4A6C4913784F6CA068A7
:1097600094F90C1043F0080313700323A28833709C
:10977000B8474FF47A716648FCF7CCFF6448FCF7B1
:10978000B1FF2B68002043F001032B600AB0BDE855
:10979000F0815D495F4B0A78A0885F4FADF82400E7
:1097A00042F008025D483C780A701A6B59788DF8CF
:1097B000184007925C6B1A788DF819100223007814
:1097C000089406A98DF81A20337001F0ABF9D0E7A0
:1097D000534B4D4D1B78534F2A783978C3F1800392
:1097E000DBB242F0080201248B422A70347069D93E
:1097F0004D4A4E4B02205054214439701C700020B9
:1098000096E72B68DB0692D46368002B64D0A368CC
:10981000002B61D0E368002B5ED0237C002B5BD053
:109820003E4F8DF8143038781E2205A901F0D4F887
:10983000002857D0227C344DDFF80CE12B78DFF87C
:109840000CC13B483B49DFF808810A7043F008032C
:109850002B706368CEF80030A368CCF80030D4F8E1
:109860000CC02378C0F800C00024337088F8004092
:109870008DF80840FDF75EFD98F800303878254FE8
:10988000013304A9ADF8103001F026F92A4B1B78FA
:1098900000948446264663F3C7162246234603A94E
:1098A00002A887F801C08DF80C60FEF745FD48B9A5
:1098B000224B234A98801268DA60FEF7A5FF002841
:1098C0003FF436AF2A781F49002363F3C3022A709E
:1098D0000B700AB0BDE8F08103200AB0BDE8F0814A
:1098E000032070471F2338788DF8183006A901F03F
:1098F0005FF8C2B222749EE7034D0220E2E700BF88
:109900002C6500204C650020B8640020AC9F03004B
:109910000C690020BC640020BA6900209066002019
:10992000B86900202E690020846800202969002081
:10993000886500202C690020BB6900203865002064
:1099400094660020776800208C66002084650020E3
:109950007C680020002800F0B3802DE9F04F594BBF
:109960001D6815F0110587B003D0012007B0BDE8D0
:10997000F08F554E8DF80850044614222946304683
:1099800004F0B6FA237851490122934272700A70AA
:1099900014D0032B00F08580002B71D04C494D4B27
:1099A000087893F82C308DF8142005A98DF816301E
:1099B00000F0FEFF022007B0BDE8F08F464A9DF898
:1099C0000830E17B1170042262F347132579D4F843
:1099D0000890B4F80CA094F90EB08DF808303D4F03
:1099E0003B4B97F82C20DFF800818DF8162005A955
:1099F000012218788DF8142000F0DAFF98F8001092
:109A0000A1B9334B834538BF83460422187897F8B1
:109A10002C308DF810B004A98DF8123000F0DCFF66
:109A200050B39DF8103098F800107B704FF000078D
:109A300061F3C717CDF800A04B462A4603A902A838
:109A40008DF80C70FEF778FC80B9244BB0801B6851
:109A5000F360FEF7D9FE48B9214A217813783170B6
:109A600043F00103137007B0BDE8F08F1D4B0022D7
:109A70001A7007B0BDE8F08F032007B0BDE8F08F83
:109A800015499DF808300A70022262F347132579C0
:109A9000D4F80890B4F80CA094F90EB08DF8083002
:109AA0009DE79DF808300C49D4F80490B4F808A05C
:109AB00094F90AB00A7043F0E0038DF808308EE79D
:109AC000032070472C650020386500204E60002080
:109AD00090660020BC6400204C600020946600204A
:109AE000B864002077680020BB69002010B5074BE0
:109AF00082B004460B2218788DF8044001A900F0CA
:109B00006BFF08B1024B1C7002B010BD90660020C4
:109B10003465002030B40648064D074C0749084A12
:109B200000236B706370437030BC4B705370704790
:109B3000DC6600200C6900200C670020F466002021
:109B4000286700202DE9F04182B0184C099F184D7C
:109B500001921A0C2272E3801A0E9DF82030627274
:109B600080463A0C637128463B0E63730E4622739F
:109B7000E173678104F0B2FD01990E4F284604F0AD
:109B8000BDFD21462846102204F0BEFDF2B241463A
:109B9000284604F0B9FD2946384604F0A3FE3B6888
:109BA0000A9A136002B0BDE8F08100BF5060002047
:109BB000C0690020CC6B00202DE9F04F83B00C462B
:109BC0000D9EDFF860829DF830A00194914600213F
:109BD000F022054691480E9FA3461C4604F088F9E2
:109BE0008E4A1021484604F071FC330E88F80D307F
:109BF0005B46200C210E320C0F2B88F805A0A8F82C
:109C00000640A8F80A6088F8080088F8091088F863
:109C10000C2040F2FE80824E804AABF110093146A2
:109C2000C9F30B194FF0000BC2465FFA8BF31C010E
:109C3000E4B20133504688F80F3004F047FD2B5D45
:109C400030787749754A43403B55601C96F801C00F
:109C50002B5C83EA0C033B54A01C96F802C02B5CDF
:109C600083EA0C033B54E01C96F803C02B5C83EAA8
:109C70000C033B54201D96F804C02B5C83EA0C03B4
:109C80003B54601D96F805C02B5C83EA0C033B54E3
:109C9000A01D96F806C02B5C83EA0C033B54E01D24
:109CA00096F807C02B5C83EA0C033B5404F10800D0
:109CB00096F808C02B5C83EA0C033B5404F10900BE
:109CC00096F809C02B5C83EA0C033B5404F10A0CA0
:109CD00096F80AE015F80C3004F10B0083EA0E0345
:109CE00007F80C302B5C96F80BC083EA0C033B544E
:109CF00004F10C0096F80CC02B5C83EA0C033B5477
:109D000004F10D0096F80DC02B5C83EA0C033B5464
:109D100004F10E0096F80EC02B5C83EA0C033B5452
:109D20000F3496F80FC0285DD94580EA0C003855ED
:109D30000BF1010B7FF479AF019B09F101042401C0
:109D400003F00F030193E4B209F1020913B903B060
:109D5000BDE8F08F324E314A324888F80F903146D4
:109D600004F0B4FC221D07EB020EB64505EB020021
:109D70008CBF002101213B1906F1040805EB040CFE
:109D8000434528BF41F00101F44538BF83422CBF51
:109D900001200020084247D00198411E042943D9E0
:109DA000DCF80010326880084A4001281A600CD0A4
:109DB000DCF804107268022882EA01025A6004D0BA
:109DC000DCF80820B1684A409A60019A22F0030347
:109DD0009BB29342BBD0E11816F803C0685C80EADE
:109DE0000C0078545A1C019992B29142AFD9A11833
:109DF000B05C6A5C42407A540233019A9BB29A4248
:109E0000A5D91C44F25C2B5D53403B5503B0BDE823
:109E1000F08F019B4FF00109002497E7D86A0020DA
:109E2000DC6B0020606000202B5D317801984B4096
:109E300001283B558BD0631C7078E95C4140019848
:109E4000F954022883D0A31CB078E95C4140019802
:109E5000F95403283FF47BAFE31CF078E95C414000
:109E60000198F95404283FF472AFAB5C31790528AE
:109E700083EA0103BB543FF46AAF631D7179EA5C66
:109E8000062882EA0102FA543FF461AFA31DB179BA
:109E9000EA5C072882EA0102FA543FF458AFE31D56
:109EA000F179EA5C082882EA0102FA543FF44FAFE4
:109EB00004F10803317AEA5C092882EA0102FA54C3
:109EC0003FF445AF04F10903717AEA5C0A2882EA9B
:109ED0000102FA543FF43BAF04F10A03B17AEA5CA1
:109EE0000B2882EA0102FA543FF431AF04F10B036C
:109EF000F17AEA5C0C2882EA0102FA543FF427AFB7
:109F000004F10C03317BEA5C0D2882EA0102FA5469
:109F10003FF41DAF04F10D03717BEA5C0E2882EA69
:109F20000102FA543FF413AF0E34B27B2B5D534061
:109F30003B550CE710B49DF8044001945DF8044BC8
:109F4000FFF73ABE2DE9F8430D4CDFF83880914613
:109F5000064620461D460F4604F0C0FB49462046F3
:109F600004F0CCFBFAB23146204604F0CDFB21468A
:109F7000404604F0B7FCD8F800302B60BDE8F88309
:109F8000C0690020CC6B0020F8B5174604460E4689
:109F90000D48F02200211D4603F0AAFF0A4A1021B5
:109FA000384604F093FA084A2946204604F08EFB0E
:109FB0000F2E00D8F8BD05F1100104F11000024A7F
:109FC000BDE8F84004F082BBD86A0020F0B5244C0C
:109FD00087B00D46074616462046F0220021ADF810
:109FE00006601E4603F084FF22463846102104F026
:109FF0006DFA02A81022002103F07AFF01232946FE
:10A000000DF1090006228DF8083003F023FF0DF151
:10A0100006010DF10F00022203F01CFF224631461B
:10A0200002A804F053FB02A81022002103F060FFF5
:10A03000022629460DF1090006228DF8086003F07A
:10A0400009FF32460DF106010DF10F0003F002FF8A
:10A050000C99224602A804F039FB07B0F0BD00BFFE
:10A06000D86A0020704700BF43782BBBF0B5B34CD3
:10A0700025788BB025B1B4F846300133A4F84630CA
:10A08000437BBBB1C378E02B17D0027B81688DF88E
:10A09000193000248DF81820A94B8C541B68027CC1
:10A0A00081688DF81C20C289DB680591ADF81A2003
:10A0B00005A898470BB0F0BD704735B9037B042B5A
:10A0C0000ED0A048FCF71EFBF4E78268137863709B
:10A0D000072BEFD8DFE803F0A29F9B96776CB9635C
:10A0E00083681A78012AECD15A78012AE9D19A7842
:10A0F000012AE6D1DE78012EE3D140F201130227D6
:10A10000238002A8A4F84850A4F8465084F84A5086
:10A11000A57027718DF80870FFF746F88A4B9DF8F7
:10A120000C201A7002A88DF808708DF80C60FFF7EB
:10A1300017F92846FFF7DAFC84498248FCF788FAC9
:10A14000804841F28831FCF7E5FA94F84830002B5A
:10A1500000F0DB8094F8492094F84A3084F84850A5
:10A1600040F203516670A180A271E371207901A9C8
:10A17000FEF78AFF002800F0B98000238DF8143024
:10A180000793ADF820308DF822306E48FCF7AAFA1C
:10A1900005A8FFF7DFFB2378002B8BD191E7037B2A
:10A1A000032B74D0072B00F085800123637081E7B7
:10A1B000012305A88DF81430FFF7AEFA2378002BA1
:10A1C0007FF478AF7DE7037B2371F22B4FF004011E
:10A1D0001D4628BFF225012B61717FF66BAF5278C7
:10A1E000022B02F10102A2717FF664AF58490223EB
:10A1F0008268D25C0133DCB20132AC4201F8012F3B
:10A20000F6D357E700220123A270637052E70123BF
:10A21000A37063704EE7022323714BE74A4A12781A
:10A220008DF818200023022205A8A4F846302370D8
:10A230008DF81420FFF794F8464B1878FFF756FC7A
:10A240002378002B7FF436AF3BE73F4B1B788DF82C
:10A250000C300025022302A8A570A4F846502570F2
:10A260008DF80830FFF77CF83A4B1878FFF73EFC82
:10A27000394B8DF814500FCB0AAD05E90F0005A836
:10A28000FFF74AFA2378002B7FF414AF19E7022373
:10A290008DF814305178937805A843EA0123ADF87E
:10A2A0001830FFF739FA237801226270002B7FF40F
:10A2B00001AF06E703238DF814305178937843EA11
:10A2C0000123ADF818301379D07851791B0243EA95
:10A2D00000430B43642101FB03F3079393798DF84B
:10A2E000203005A8FFF718FA2378DDE7A378ABB98B
:10A2F00021791A4A8DF81430E0208DF822308DF83B
:10A300001800ADF8201007923FE76378012B27D0A3
:10A31000042B7FF42BAF0123637027E701232179FE
:10A320000E4A8DF81430E0204FF400638DF81800C9
:10A33000ADF820100792ADF8223026E7146C00200B
:10A34000EC6B0020606C0020106C002071A30200F8
:10A350001A6C0020606D0020F06B0020196C00204A
:10A36000B4F84630A37102221B1263712271FDE61C
:10A3700010B52E4C94F8483086B043B3002340F219
:10A38000035094F8491094F84A2084F84830012387
:10A39000A080A171E2716370032001A9FEF774FE31
:10A3A00018BBA37853BB2179214AADF81410E021E2
:10A3B0008DF808308DF816308DF80C1004921D4879
:10A3C000FCF790F902A8FFF7C5FA06B010BD637854
:10A3D000012B23D0042B08BF0123207908BF637011
:10A3E00001A9FEF751FE0028DBD000238DF80830CC
:10A3F0000493ADF814308DF81630E0E723790C4A59
:10A40000ADF814300120E0214FF400638DF808000E
:10A410008DF80C100492ADF81630D0E7B4F8463041
:10A42000A37102201B1263712071B6E7146C002027
:10A43000196C0020606C00200246024B00685168D5
:10A4400003C37047806C00200246024B00685168CD
:10A4500003C37047786C002010B40346044C59685D
:10A460009A680068DB680FC45DF8044B704700BF52
:10A47000706000202DE9F043A7B00EAC84E8060020
:10A48000064694E803009E4A9E4D9F4CDFF8DC820E
:10A490001060C1F3072026602B70918088F80000BF
:10A4A000002B00F0F080994A9949D5799079537939
:10A4B000059515790490D078039393780093CDE9AE
:10A4C00001059448537812780DF094FB924A934911
:10A4D000D57990795379059515790490D0780393BF
:10A4E00093780093CDE901058D48537812780DF0EB
:10A4F00081FB8C4A8C49D0789378CDE90030D37BAE
:10A50000907B557B0D93137B0C90D07A0B95957AAD
:10A510000A93537A0990107A0895D579079393791D
:10A520000690507905951579049353781278039025
:10A530007E4802950DF05EFB23687D487D497E4A8A
:10A540007E4C1B680B60C0E900427D4B8360052296
:10A55000FEF72AFC0646002840F0CE80794C9DF894
:10A5600038302371204602232370FEF7F9FE1622AD
:10A570009DF83C302270204623714FF00709FEF70A
:10A58000EFFE9DF83A30704D2371204684F800901C
:10A59000FEF7E6FE204626702671FEF7E1FE98F8EB
:10A5A00000006A4FFFF7A2FA95E8070011AB83E8B5
:10A5B000070003200ECBFFF791F805F10C0393E899
:10A5C000070014AB83E8070004200ECBFFF786F8E2
:10A5D00005F1180393E8070017AB83E8070005208F
:10A5E0000ECBFFF77BF805F1240393E807001AABC5
:10A5F00083E8070006200ECBFFF770F805F1300363
:10A6000093E807001DAB83E8070048460ECBFFF731
:10A6100065F805F13C0393E8070020AB83E80700E9
:10A6200048350ECB0820FFF759F895E8070023AB13
:10A6300083E8070003250ECB0920FFF74FF80B2313
:10A640002046676025722370FEF78AFE0A232046A3
:10A65000676025722370FEF783FEFF233C48ADF848
:10A66000403010A9012200F0F1FA3A4810A9012265
:10A6700000F0ECFA384810A9012200F0E7FA304661
:10A6800027B0BDE8F083244A2449D57990795379DD
:10A69000059515790490D078039393780093CDE9CC
:10A6A00001051F48537812780DF0A4FA2B4A2C4963
:10A6B000D0789378CDE90030D37B907B557B0D9398
:10A6C000137B0C90D07A0B95957A0A93537A099064
:10A6D000107A0895D5790793937906905079059566
:10A6E000157904935378127803900A4802950DF077
:10A6F00081FA1C4A1C49FEE64FF0FF30C0E700BF5C
:10A70000986C0020616D0020EC6B0020786C0020BC
:10A71000909D0300E06C0020806C0020C09D030031
:10A72000A06C002070600020F09D0300206D0020D0
:10A73000046C0020006C002069A0020065A00200EB
:10A7400029A80200886C0020F89E030008E6D33395
:10A75000646D0020686D00206C6D0020906000200A
:10A76000489E030080600020A09E0300606D0020D2
:10A7700030B52249224A234B234DD878234B244C11
:10A780002D7887B0CDE9021204938DF8140006AB42
:10A7900013E90F0084E80F0000238DF8043025B181
:10A7A00001A8FEF7B9FF07B030BD1A4C03232046BD
:10A7B00023706560FEF7D4FD174B04221B682270DE
:10A7C00020466360FEF7CCFD144B636005222046F3
:10A7D0002270FEF7C5FD0622114B227020466360F1
:10A7E000FEF7BEFD0123204623702371FEF7B8FD5E
:10A7F0000C4B1B681B69984707B030BD806C00206C
:10A80000786C0020986C0020616D00207060002042
:10A81000F06B0020886C0020946C00209060002079
:10A8200080600020EC6B0020037883B1012B0DD1F8
:10A83000427852B90A4A117839B182F84830037A1D
:10A8400082F84930437A82F84A307047704743783B
:10A850001BB9044B1B681B691847FFF789BF00BF72
:10A86000146C0020EC6B002000B585B0012301A81A
:10A870008DF80430FEF798FC9DF8080005B05DF8EF
:10A8800004FB00BF1D4B1B78002B33D130B587B0C4
:10A8900004460D46007901A9FEF7F6FB38BB184BBC
:10A8A000CDB15B786079217922688DF81630082364
:10A8B0008DF80C00ADF8141004928DF817300125B6
:10A8C00002A88DF80850FFF745F8003818BF01209E
:10A8D000404207B030BD58786179227923688DF8FD
:10A8E00016008DF80C10ADF814200493E8E74FF033
:10A8F000FF30EEE74FF0FF30704700BF146C0020D0
:10A90000986C002030B585B00446002501A88DF86C
:10A910000450FEF749FC9DF80800A04206D0012C27
:10A920001FD0022C05D0BCB14FF0FF35284605B032
:10A9300030BD051E18BF012501A86D428DF80840E5
:10A94000FEF70EFD0028EFD1124B1B6820465B6915
:10A950009847284605B030BD70B90546284605B071
:10A9600030BD0128E2D001A88DF80840FEF7F8FCC0
:10A9700005460028E8D0D7E701A88DF80840FEF783
:10A98000EFFC05460028CFD1024B1B685B69984756
:10A99000CCE700BFEC6B0020014B00225A707047DF
:10A9A000606C0020A0F10500B0FA80F0400970470B
:10A9B000052801D000207047084600F05BBB00BFAF
:10A9C000052800D07047084600F0B8BB052800D025
:10A9D0007047084600F0C8BB05280B4601D0002090
:10A9E00070471146184600F0F7BB00BF052800D09D
:10A9F0007047084600F022BC052801D000207047AF
:10AA0000084600F0DDBC00BF10B405280C46114616
:10AA10001A46019B03D000205DF8044B7047204686
:10AA20005DF8044B00F0E6BC10B405280C46114656
:10AA30001A46019B02D05DF8044B704720465DF832
:10AA4000044B00F00FBD00BF05280B4601D00020CD
:10AA500070471146184600F041BD00BF052801D0DF
:10AA60000020704710B40C46204611465DF8044B98
:10AA70001A4600F0ADBD00BF30B405280C461146A3
:10AA80001A46DDE9023502D0002030BC704702953D
:10AA9000204630BC00F02EBE052801D000207047B3
:10AAA000084600F08DBF00BF052801D00020704788
:10AAB000084600F0A9BF00BF052801D0002070475C
:10AAC000084601F073B800BF052801D00020704788
:10AAD000084601F06FB800BF052801D0002070477C
:10AAE000084601F0B1B800BF052800D070470846FD
:10AAF00001F0DEB810B405280C4611461A46019B39
:10AB000003D000205DF8044B704720465DF8044BED
:10AB100001F0EAB8052801D003207047084601F08B
:10AB2000A5B900BF052800D07047084601F072BAE9
:10AB3000052820B40D46114603D0D0B25DF8045B61
:10AB4000704728461A465DF8045B01F08BBA00BFD7
:10AB5000884204DB9042CCBF0020012070470020D7
:10AB6000704700BF10B41409B4EB111F12D3914207
:10AB700010D20B091AB201F00F0130F81240012374
:10AB800003FA01F124EA010120F812105DF8044BE8
:10AB90001846704700205DF8044B7047002851D0DC
:10ABA000914250D2531E5B1A51FA83F330B4841C85
:10ABB00000EB410104EB4304002031F8025B05F097
:10ABC0000103AA0748BF01336A0744BF0133DBB260
:10ABD0002A0744BF0133DBB2EA0644BF0133DBB2CC
:10ABE000AA0644BF0133DBB26A0644BF5A1CD3B283
:10ABF0002A0644BF5A1CD3B2EA0544BF5A1CD3B23A
:10AC0000AA0544BF5A1CD3B26A0544BF5A1CD3B22A
:10AC10002A0544BF5A1CD3B2EA0444BF5A1CD3B21B
:10AC2000AA0444BF5A1CD3B26A0444BF5A1CD3B20C
:10AC30002A0444BF5A1CD3B203448C42D8B2BCD1BC
:10AC400030BC704770470020704700BF18B311B385
:10AC50000AB370B4C41C641A531E062CDBB21BD991
:10AC6000092B19D95608013EF3B20E1D06EB8306D7
:10AC700004460B4653F8045B44F8045BB342F9D135
:10AC800002F0FE0332F0FE0203D031F8132020F868
:10AC9000132070BC7047704701EB43030238023940
:10ACA00031F8022F20F8022F9942F9D1F1E700BFC5
:10ACB00000B94A608A6070472DE9F047002B4DD0FB
:10ACC000013BDBB202F1100706460D46144607EBC6
:10ACD00003174FF0FF384FF0000946B1E5B9E560C2
:10ACE000A8461034A742F8D14046BDE8F087606816
:10ACF000FBF722FD824645BB6068FBF71DFDE3685C
:10AD0000834206D9002BECD0181A804528BF804614
:10AD1000E7E7C4F80C90E4E7D4E9020AFBF70CFD7E
:10AD20008245F6D9D4F80CA0BAF1000FD9D0A068AA
:10AD3000FBF702FDAAEB00004045D2D2D4E902089D
:10AD4000FBF7FAFCA8EB0008CBE7A068FBF7F4FCE4
:10AD50008245D1D2A068FBF7EFFCD0E74FF0FF3877
:10AD60004046BDE8F08700BF0378032B01D00020E8
:10AD7000704790F9013003F00F02C3F303138A7098
:10AD80004B7083788B80C27843EA02238B800379EF
:10AD9000C3F3021203F00F03CA700B700520704753
:10ADA0002DE9F04F447890F9026090F903C085B026
:10ADB000A4B9B0F9026090F906C040F60F75AE4232
:10ADC00090F905600AD090F807800E70204682F84E
:10ADD00000C083F8008005B0BDE8F08F047890F8DB
:10ADE0000480002CF1D090F91050B5420CDD90F9A0
:10ADF000195090F91800AC4504F0FD0445DB84457A
:10AE0000E3DD04F0FB04E0E790F91150B542EEDB1E
:10AE1000057A0395002DEAD0C56801954FF0000B27
:10AE200045690295D946019F5FFA8BF55FFA89F96A
:10AE300037F815A00C252F46029D17FB0959002550
:10AE400001E0102D23D04AFA05F705EB450E17F067
:10AE5000010F09EB8E0E05F10105F2D09EF8087086
:10AE600007F00F0E7645ECDBB6EB171FE9DC90F927
:10AE7000195090F918706545C8BFAC4611DD072C14
:10AE8000A3D1B8F1000FA0D19DE7AC469DE70BF12F
:10AE9000010B039F4FEA0B195FFA89F5AF42C2D845
:10AEA000A5E76745ADDBEAE7012370B503FA00F0DB
:10AEB0000E460BF013FC044630460D460BF0FEFB2D
:10AEC00002460B46204629460BF09CFD034B002210
:10AED0000BF06EFC41EC100B70BD00BF00408F40CA
:10AEE00008B50BF0EBFB02460B46002002490BF0C5
:10AEF00089FD41EC100B08BD000020402DE9F84F02
:10AF000055EC104B0746043840000E4692469B46CF
:10AF10000BF0E4FB22462B460BF04AFC8046700007
:10AF200089460BF0CBFB02460B46404649460BF0E8
:10AF300089FA22462B460BF065FD41EC100B03F01D
:10AF4000DFFF51EC100B0BF0F5FE874238BF0746D0
:10AF50001C4BCBF800700022204629460BF028FC41
:10AF60008046504689460BF0A9FB0B4602464946EF
:10AF700040460BF065FA0246384616460F460BF07F
:10AF80009DFB114B804689460022204629460BF046
:10AF90000FFC02460B46404649460BF009FC0246B0
:10AFA0000B46304639460BF04BFA41EC100B03F0E0
:10AFB000A7FF51EC100B0BF095FE0A9C2060BDE83A
:10AFC000F88F00BF000010400000E03F00B54000D7
:10AFD00007EE900A30EE600AF8EE677A83B030EE42
:10AFE000670A04F023F9FDEEC07ACDED017A9DF9F0
:10AFF000040003B05DF804FB70B4D0E90021C37A0B
:10B00000447A03EB430302EB830300255B7A01EBF5
:10B0100003121E018B5BD56084B9C46813498C424E
:10B0200016D3134D42F21071AC4238BF4FF47A710F
:10B03000847A8CB9047A7CB970BC7047817A002913
:10B04000FAD00169013B01FB03F370BCD360704788
:10B05000847A6421002CEDD08B4238BF0B46016905
:10B06000013B01FB03F370BCD360704780EE3600F8
:10B07000803F5C0208B50378093B172B0DD8DFE849
:10B0800003F010154A2E3134373A3D400C480C2657
:10B09000282A2C0C0C21240E0E1A002008BD30206A
:10B0A00008BD90F901301D4AD05C08BD90F901300F
:10B0B0001B4AD05C08BD90F901000028EED0013891
:10B0C00040B208BD4FF0834008BD164808BD164881
:10B0D00008BD164808BD102008BD154808BD40F63B
:10B0E000B83008BD4FF47A7008BD4FF4FA6008BD5F
:10B0F00041F2883008BD41F2707008BD4FF48040C5
:10B1000008BD4FF47A710B4802F084FE00F5FA6036
:10B1100008BD094808BD012008BD00BF989F030075
:10B12000A09F03009A990940686D0020646D00207B
:10B13000706D002018FCFFFF08E6D33310B40378CD
:10B14000074C08494268407803EB430304EB830350
:10B150005DF8044B5B7A01EB0311FFF7A9BD00BF5B
:10B16000706D0020A4600020012803D0022826D0A2
:10B1700038B17047144A1549138809880B43138066
:10B18000704770B4124C134B104E94E8070004F152
:10B190000C0583E8070095E80700183403F10C0557
:10B1A00085E8070094E80700183383E807000723C1
:10B1B00031463380044870BC0122FFF747BD034984
:10B1C00001480122FFF742BD686D0020646D002038
:10B1D0004C9F0300706D0020043908B51A290FD860
:10B1E000DFE801F0101A1010100E0E2A0E0E0E0ECF
:10B1F0000E0E0E0E0E0E0E0E0E0E0E0E0E0E240067
:10B20000002008BD0722002190F90000FFF7A0FCF4
:10B21000003818BF012008BD0522002190F9000068
:10B22000FFF796FC003818BF012008BD00782F28D2
:10B2300094BF0020012008BD012008BD2DE9F04F7A
:10B24000037985B05022102B8DF80C2074D1DFF8D3
:10B250006CA18146032413E000238DF80C306500B7
:10B26000484A49482544002342F8253002EB850628
:10B270001022C6E90133FFF775FC0134102C5BD0B6
:10B28000072CE1B2E8D8D9F8002004EB44031A44B3
:10B290004FF0640B12F8080C12F8093C12F8072C56
:10B2A00043EA002343EA02430BFB03FB6500BBF1C7
:10B2B000000FD5D09DF80C8048F303084FFA88F8AA
:10B2C000072200214046FFF743FC9DF80C6046F33F
:10B2D000031676B20746072230460021FFF738FCF6
:10B2E00068B3B7FA87F77F09284B58465B6AB045C1
:10B2F000C8BF012798470028BFD0254B0BEB0A0297
:10B300009A421ED80226002FB7D1CDE901B71D4BB6
:10B310001D4F254403EB850504AB13E90700B7F87F
:10B3200000C00123A340013443EA0C03102C85E83C
:10B3300007003B806E72A3D105B0BDE8F08F0127F6
:10B34000D2E7144A144B5A449A4215D9134A144B63
:10B350005A449A4212D9134A134B5A449A42D1D9A9
:10B36000124A134B5A449A420AD9124A124B5A446F
:10B370009A4282D80426C6E70026C4E70126C2E71F
:10B380000326C0E7706D0020686D0020AC9F0300AD
:10B390007F841E00C02571CCC0C62D00FF5E43CC4B
:10B3A000BF270900A0B038CC20A1070040022ECC56
:10B3B00090D00300606E29CCE093040040AA8FCCAB
:10B3C00010B5047954B1012C06D101680748224612
:10B3D000FFF73CFC204610BD002010BD016804486A
:10B3E0000122FFF733FC012010BD00BF646D002077
:10B3F000686D0020F0B44478466890F9085090F9E0
:10B4000009701E6014B135B91D602C460D702046C0
:10B410001770F0BC70473F2E0BD95F2E03D906F092
:10B420001F06012E0BD000270D7020461770F0BCB0
:10B43000704700240D7020461770F0BC7047013D26
:10B440006DB2002DEFD104783CB10548038843F07C
:10B45000070303802F462C46D8E72746D6E700BFD0
:10B46000686D002007282DE9F0410646DFF864E00A
:10B47000DFF864C0A8BF072682B05EF826505E7071
:10B4800065451C460F4690461ED0104B9D420CBF92
:10B49000022500250628A57012DC0D4B5EF826104B
:10B4A000985DFFF701FD04F10C0300934146384617
:10B4B00004F108030322FFF721FD02B0BDE8F0818B
:10B4C0003220FFF70DFDEEE70125E3E720A107009D
:10B4D000709F0300789F030090D003002DE9F04790
:10B4E000354E90F90190B36847688AB004468846A3
:10B4F000984700285BD1E37C054653B923782F4A4F
:10B5000003EB43039B00D118D7584B68002B18BF9F
:10B510001F462B4A336912F909A038469847B9F1FA
:10B52000070F23D000210827A37C0993CDE900173A
:10B53000CDE90611CDE90411CDE9021101250895E7
:10B540002B46F769A17852462846B847637C53B327
:10B550001C4B13F80910F36D0D312846C9B29847FA
:10B56000012088F800900AB0BDE8F087A37C164956
:10B5700009934FF0010C002305274FF47A72CDE9AF
:10B580000017CDE90733CDE903330693029318463C
:10B59000F769CDF814C002FB0AF24CF25031B847FB
:10B5A000637C002BD4D1094B13F80910D3E700209A
:10B5B0000AB0BDE8F08700BFAC9F0300706D0020AB
:10B5C000709F0300A09F030085450100989F030022
:10B5D0002DE9F04F0578404F404BDFF810E105EBC7
:10B5E000450507EB850504466D7A3D4894F901C091
:10B5F00094F9026053F82C301EF90CB000EB0510E2
:10B600008DB090F902503748AE42B8BF2E46834203
:10B61000894692465DD0344A93420CBF02230023F0
:10B62000D4ED020A94ED010A0B933046FFF7CEFCED
:10B630002578DFF8BC800A9005EB4505D8F8102086
:10B6400057F82500904794F90120072ADDE90A13ED
:10B6500025D00022012540F6B8300827CDE9072083
:10B6600002972846CDE90522CDE90325D8F82070B8
:10B67000CDF800B00195B8472846D8F85C30217B5A
:10B680000A909847D8F82830217B0A989847CAF83A
:10B690000000012089F800600DB0BDE8F08F4FF484
:10B6A0007A72002002FB0BF240F6B83C0127052518
:10B6B000CDE9070CCDE905000092039001900497B5
:10B6C0000295D8F820700A9046F2A812B8470A9856
:10B6D000D3E70123A4E700BF706D0020789F03002B
:10B6E000A460002090D0030020A10700709F0300F9
:10B6F000AC9F03002DE9F04F04798BB00546002084
:10B70000884617461E46ADF80200002C00F04D8119
:10B71000DFF8A89204464FF0070A0DF1040B2868E1
:10B7200059462044FFF720FB002800F09880BDF820
:10B7300008309DF80720ADF802300444E4B2184602
:10B74000002A40F0CE80002B00F0D080DA0740F1D4
:10B750002481D9F80020002A14BF4FF0070A4FF0C7
:10B76000060A980705D5D9F80C20002A08BF4FF023
:10B77000060A590705D5D9F81820002A08BF4FF046
:10B78000060A1A0705D5D9F82420002A08BF4FF069
:10B79000060AD80605D5D9F83020002A08BF4FF090
:10B7A000060A990605D5D9F83C20002A08BF4FF0B3
:10B7B000060A5A0605D5D9F84820002A08BF4FF0D6
:10B7C000060A180605D5D9F85420002A08BF4FF0FC
:10B7D000060AD90505D5D9F86020002A08BF4FF020
:10B7E000060A9A0505D5D9F86C20002A08BF4FF043
:10B7F000060A580505D5D9F87820002A08BF4FF069
:10B80000060A190505D5D9F88420002A08BF4FF08B
:10B81000060ADA0405D5D9F89020002A08BF4FF0AF
:10B82000060A980405D5D9F89C20002A08BF4FF0D5
:10B83000060A590405D5D9F8A820002A08BF4FF0F8
:10B84000060A1A0405D5D9F8B420002A08BF4FF01B
:10B85000060AADF802302B79A3423FF660AFAA7911
:10B860009DF805109DF806008DF80D208DF80E103E
:10B870009DF80420E9798DF80F00287A8DF81020C2
:10B880006D7A8DF8111010220DF102018DF8120061
:10B890004FF4E0608DF813508DF8142007250691C1
:10B8A000ADF81C005B460DF106020DF1050103A881
:10B8B0008DF80CA0CDF82090ADF82450FFF770FA69
:10B8C000A8426DD09DF8053088F800309DF806201C
:10B8D0009DF804303A703370149B1C700BB0BDE8B7
:10B8E000F08F511E042901D9062A02D04FF0060A12
:10B8F000B1E7D9F8002012B140F001039BB2D9F8AA
:10B900000C200AB143F00203D9F818200AB143F021
:10B910000403D9F824200AB143F00803D9F83020F1
:10B920000AB143F01003D9F83C200AB143F02003D8
:10B93000D9F848200AB143F04003D9F854200AB19D
:10B9400043F08003D9F860200AB143F48073D9F83A
:10B950006C200AB143F40073D9F878200AB143F49B
:10B960008063D9F884200AB143F40063D9F89020A9
:10B970000AB143F48053D9F89C200AB143F4005330
:10B98000D9F8A8200AB143F48043D9F8B4200AB109
:10B9900043F400434FF0070A5BE74FF0070AE0E685
:10B9A000054BBDF802201A808CE7DFF810904FF0AD
:10B9B000070A0DF1040B52E7686D0020706D00203E
:10B9C000104B70B55B6A0446406898470722002810
:10B9D0004FF0000194F9000019BF15460526042612
:10B9E0000625FFF7B5F800210346052294F901006A
:10B9F0008B4208BF3546FFF7ABF808B905F00305E1
:10BA0000284670BDAC9F0300F8B504682368ABB945
:10BA10000179022901D80020F8BD554A554801EBAB
:10BA2000410502EB850442F825301022C4E90133B8
:10BA3000FFF798F80028EED00320F8BD06790F2E06
:10BA4000E9D8207A40F303000722002140B2FFF733
:10BA50007FF80546207A40F3031040B20722002108
:10BA6000FFF776F820B3B5FA85F56D09207A40F333
:10BA7000030340F303105BB240B28342C8BF012509
:10BA8000022E17D8002B4FF007024FF00501C8BF58
:10BA90000125FFF75DF870B3354A236806EB4601D0
:10BAA00052F82170BB4206D0002DB4D10220F8BD5F
:10BAB0000125DBE72768304B38465B6A984700284A
:10BAC000F2D02E4B2E4A3B4493422FD802275DBB27
:10BAD0002849274B08880122B240024306EB46055D
