:020000022000DC
:1060000000000420D9EE020019EF020069320300FB
:106010001DEF02001FEF020021EF02000000000050
:10602000000000000000000000000000410A030022
:1060300025EF020000000000610A030029EF0200C2
:10604000556503002BEF02002BEF02002BEF02003F
:106050002BEF02002BEF020035F102002BEF0200C4
:106060002BEF02002BEF02002BEF02002BEF0200C0
:106070002BEF02002BEF02002BEF02002BEF0200B0
:106080002BEF0200850703002BEF02002BEF02002D
:106090002BEF02002BEF02002BEF02002BEF020090
:1060A0002BEF02002BEF02002BEF02002BEF020080
:1060B0002BEF02002BEF02000000000000000000A8
:1060C0002BEF02002BEF02002BEF0200ED0E03007E
:1060D0002BEF02002BEF02002BEF02007D2D0300BF
:1060E0002BEF02002BEF02002BEF0200000000005C
:1060F000000000002BEF020000000000650F03000D
:10610000000000000000000000000000000000008F
:10611000000000000000000000000000000000007F
:10612000000000000000000000000000000000006F
:10613000000000000000000000000000000000005F
:10614000000000000000000000000000000000004F
:10615000000000000000000000000000000000003F
:10616000000000000000000000000000000000002F
:10617000000000000000000000000000000000001F
:10618000000000000000000000000000000000000F
:1061900000000000000000000000000000000000FF
:1061A00000000000000000000000000000000000EF
:1061B00000000000000000000000000000000000DF
:1061C00000000000000000000000000000000000CF
:1061D00000000000000000000000000000000000BF
:1061E00000000000000000000000000000000000AF
:1061F000000000000000000000000000000000009F
:10620000F1EE103A43F08073E1EE103A704700BFB0
:1062100010B5054C237833B9044B13B10448AFF3E0
:1062200000800123237010BD2463002000000000C3
:10623000D8D5030008B5034B1BB103490348AFF39E
:10624000008008BD0000000028630020D8D50300AE
:10625000154B002B08BF134B9D46A3F5803A002138
:106260008B460F461348144A121A12F0E7F90F4BE7
:10627000002B00D098470E4B002B00D098470020F1
:10628000002104000D000D48002802D00C48AFF397
:10629000008012F069F9200029000CF00FFE12F0C6
:1062A0003DF900BF000008000000042000000000CD
:1062B0000000000024630020A895002000000000DA
:1062C0000000000010B50468027AB0F906300649F3
:1062D00084B0CDE9012400930379427903480CF09E
:1062E0004DFB04B010BD00BF54B50300547C00202A
:1062F00008B5094B09491A5C09480CF03FFB094BEA
:1063000009481B784371094A00230371BDE808401E
:10631000117804F0DDBB00BFB4B5030098B50300ED
:10632000547C0020296000201C6000202A6000208E
:1063300010B544F62061214800F0F4F91F4800F040
:10634000D9F91F491F480CF0C9FA04F0B3FB012822
:1063500005D0BDE810401C491A480CF00FBB1B4C7F
:1063600040220021206812F069F9194A2368127846
:10637000627148221A702268164B6521517022689A
:1063800019786C2393702268D37023686F222120C0
:106390001A71587106222046227104F099FB48B107
:1063A0000D4B0E491A6807480132BDE810401A60CB
:1063B0000CF0E4BA0A4B0B49F4E700BF88630020F5
:1063C000B8B50300547C0020D0B503001C60002049
:1063D000296000202A6000204063002004B60300EA
:1063E00084630020ECB5030008B50C490C480CF0A0
:1063F00075FA0C4B187804F0ABFB00B108BD4FF4F4
:106400007A7008F0E9FE084844F6206100F08AF945
:10641000BDE80840044800F06DB900BF1CB6030099
:10642000547C0020A06300208863002010B5012167
:1064300023200CF0A7F9002123200CF0E3F900F051
:1064400081F823484FF4E13104460CF02BFC01E0C5
:1064500008F0C2FE20460CF027FC03460A20002B61
:10646000F6D01C491A480CF039FA1B4918480CF0B0
:1064700035FA1A4916480CF031FA194914480CF04B
:106480002DFA144912480CF029FA1649164800F062
:10649000E7F8164804F00EF9154804F013F915480A
:1064A00004F018F9144B154A1B78154806CA04F075
:1064B0001FF918B9BDE8104004F080BA024611492E
:1064C00003480CF05BFABDE8104004F077BA00BF57
:1064D000547C002038B6030060B6030080B6030089
:1064E0008CB6030031630200886300204460002002
:1064F0002C6000203460002028600020B4B6030027
:10650000046000209CB60300014B9B6E184700BF3F
:1065100038B90300014B00225A707047886300208D
:1065200000B583B02C230093044905482B232D226A
:1065300008F0D6F903B05DF804FB00BF003002405C
:10654000A463002030B51E4B26222A252B242F21A0
:106550005A609D60DC6059612D2040F201112E22AD
:106560002C25272483B018619A61DD611C6219858E
:106570002520012202250024586283F82C201D606A
:1065800083F82A4000F06AF800F01CFC2A460DF15E
:1065900006014FF4E860ADF8064000F055FEBDF886
:1065A000063042F21442934206D044F23440181AA4
:1065B00018BF012003B030BD204603B030BD00BF7E
:1065C000B8630020054B002202204FF0FF31C3E9E1
:1065D000081118609A6283F82C207047B863002075
:1065E000024A034B10681B68584070476000001057
:1065F000640000100A4A0B4B1168C1711168090A46
:10660000817151884171D27802711A68C2701A681A
:10661000120A82705A884270DB780370704700BF9C
:10662000600000106400001000207047704700BF39
:10663000704700BF014808F085B900BFA46300207F
:1066400038B5054CA4F1500554F8083D1B682046A8
:106650009847AC42F8D138BD44640020704700BF71
:1066600030B5224C257883B0ADB163787BB3A37885
:106670007BB3E3787BB323797BB363797BB3A37973
:106680007BB3E3797BB3237A23B1637A092513B112
:1066900003B030BD082543780161012262550570C1
:1066A000134853B100230A4600EBC500009342F2A1
:1066B00010710CF0EDFC03B030BD009200EBC50092
:1066C0000A4642F210710CF0E3FC03B030BD012524
:1066D000E1E70225DFE70325DDE70425DBE7052504
:1066E000D9E70625D7E70725D5E700BFE8630020EF
:1066F000F463002010B5064C037804EBC304204675
:106700000CF016FD2046BDE810400CF0D5BC00BFD3
:10671000F4630020024B007803EBC0000CF008BDCE
:10672000F463002010B4054C0378054A04EBC30061
:106730005DF8044B42F823100CF02EBDF4630020EA
:106740004464002008F03CBD10B5044608F038FD54
:10675000001B10BD38B5084C04F150052046083424
:106760000CF08EFCAC42F9D1BDE83840034A044934
:10677000002011F09BBE00BFF463002000600020E9
:10678000416602002DE9F04FDFF83483C94C98F8D8
:10679000003083B00646002B00F0BE80C64D002EB0
:1067A00063D040F2E93604E008F016FD013E00F047
:1067B0007C82A0690CF044F80128F5D0A068002183
:1067C0000CF020F895E80600BC4808F0FFF81D2101
:1067D000BA4808F063F90921B84808F05FF92021A8
:1067E000B64808F05BF90021B44808F057F90021D9
:1067F000B24808F053F90746B04808F049F9A068D4
:1068000001210BF0FFFF40F2E93604E008F0E4FC60
:10681000013E00F05582A0690CF012F80128F5D075
:10682000A06800210BF0EEFF95E80600A34808F0F1
:10683000CDF80D21A14808F031F909219F4808F051
:106840002DF920219D4808F029F947F00801C9B227
:106850009A4808F023F9994808F01AF9A06801212C
:1068600003B0BDE8F04F0BF0CDBF40F2E93604E0D5
:1068700008F0B2FC013E00F02E82A0690BF0E0FFB0
:106880000128F5D0A06800210BF0BCFF95E80600B8
:106890008A4808F09BF81D21884808F0FFF8092174
:1068A000864808F0FBF82021844808F0F7F800211A
:1068B000824808F0F3F80021804808F0EFF8074616
:1068C0007E4808F0E5F8A06801210BF09BFF40F23C
:1068D000E93604E008F080FC013E00F0DB81A069AD
:1068E0000BF0AEFF0128F5D0A06800210BF08AFF65
:1068F00095E80600714808F069F80D216F4808F026
:10690000CDF809216D4808F0C9F820216B4808F03E
:10691000C5F807F0F7019BE740F2E93504E008F01D
:106920005BFC013D00F0E281A0690BF089FF0128CA
:10693000F5D0614DA06800210BF064FF95E80600DA
:106940005E4808F043F81D215C4808F0A7F80521CF
:106950005A4808F0A3F88021584808F09FF8002111
:10696000564808F09BF80021544808F097F8014673
:106970005248019108F08CF8A06801210BF042FF09
:1069800040F2E93704E008F027FC013F00F0B9814C
:10699000A0690BF055FF0128F5D0A06800210BF08D
:1069A00031FF95E80600454808F010F81D214348DE
:1069B00008F074F80521414808F070F883213F4839
:1069C00008F06CF800213D4808F068F800213B48C9
:1069D00008F064F88346394808F05AF8A0680121A5
:1069E0000BF010FF40F2E93704E008F0F5FB013F3F
:1069F00000F09281A0690BF023FF0128F5D0A06878
:106A000000210BF0FFFE95E806002C4807F0DEFFA2
:106A10001D212A4808F042F80521284808F03EF8D0
:106A20008421264808F03AF80021244808F036F876
:106A30000021224808F032F88246204808F028F861
:106A4000A06801210BF0DEFE40F2E93704E008F017
:106A5000C3FB013F00F06B81A0690BF0F1FE012840
:106A6000F5D0A06800210BF0CDFE95E80600134894
:106A700007F0ACFF1D21114808F010F805210F4860
:106A800008F00CF885210D4808F008F800210B48A3
:106A900008F004F80021094808F000F8814607488A
:106AA00007F0F6FFA06801210BF0ACFE40F2E937D9
:106AB0000DE000BFB863002070640020A4630020D4
:106AC0006C64002008F088FB013F00F03B81A06966
:106AD0000BF0B6FE0128F5D0A06800210BF092FE65
:106AE00095E80600B34807F071FF0D21B14807F0A3
:106AF000D5FF0521AF4807F0D1FF8021AD4807F051
:106B0000CDFF019BAB4843F00801C9B207F0C6FFB7
:106B1000A84807F0BDFFA06801210BF073FE40F20A
:106B2000E93704E008F058FB013F00F01681A06946
:106B30000BF086FE0128F5D0A06800210BF062FE64
:106B400095E806009B4807F041FF0D21994807F0A2
:106B5000A5FF0521974807F0A1FF8321954807F07D
:106B60009DFF0BF0F701934807F098FF914807F05D
:106B70008FFFA06801210BF045FE40F2E93704E0E9
:106B800008F02AFB013F00F0F380A0690BF058FEEB
:106B90000128F5D0A06800210BF034FE95E806002E
:106BA000844807F013FF0D21824807F077FF052185
:106BB000804807F073FF84217E4807F06FFF0AF0DA
:106BC000F7017C4807F06AFF7A4807F061FFA06888
:106BD00001210BF017FE40F2E93704E008F0FCFA5F
:106BE000013F00F0D080A0690BF02AFE0128F5D00B
:106BF000A06800210BF006FE95E806006D4807F03E
:106C0000E5FE0D216B4807F049FF0521694807F0B3
:106C100045FF8521674807F041FF09F0F701654806
:106C200007F03CFF634807F033FFA06801210BF039
:106C3000E9FD40F2E93704E008F0CEFA013F00F048
:106C4000AD80A0690BF0FCFD0128F5D0A068002103
:106C50000BF0D8FD95E80600564807F0B7FE0D2169
:106C6000544807F01BFF0921524807F017FF202165
:106C7000504807F013FF06214E4807F00FFF4D481C
:106C800007F006FFA06801210BF0BCFD012388F886
:106C9000003084E54849494812F046FB484812F064
:106CA00043FB0A2012F058FB1EE64349434812F00A
:106CB0003BFB434812F038FB0A2012F04DFB7DE508
:106CC0003D493E4812F030FB3D4812F02DFB0A20B2
:106CD00012F042FBA4E53849384812F025FB384849
:106CE00012F022FB0A2012F037FBCBE53249334881
:106CF00012F01AFB324812F017FB0A2012F02CFB9C
:106D000017E62D492D4812F00FFB2D4812F00CFB11
:106D10000A2012F021FB40E62749284812F004FB24
:106D2000274812F001FB0A2012F016FB67E6224901
:106D3000224812F0F9FA224812F0F6FA0A2012F06C
:106D40000BFB8EE61C491D4812F0EEFA1C4812F0AF
:106D5000EBFA0A2012F000FBBEE61749174812F0C2
:106D6000E3FA174812F0E0FA0A2012F0F5FAE3E627
:106D70001149124812F0D8FA114812F0D5FA0A2037
:106D800012F0EAFA06E70C490C4812F0CDFA0C486A
:106D900012F0CAFA0A2012F0DFFA29E7064907487A
:106DA00012F0C2FA064812F0BFFA0A2012F0D4FA22
:106DB0004CE700BFA4630020BCB60300C4B60300C8
:106DC000CCB6030070B5304C304EFFF733FC0025D5
:106DD000A068357001210BF0D5FCA06801210BF0F3
:106DE00011FDA06929460BF0CDFC606929460BF026
:106DF000C9FC606801210BF0C5FC606801210BF043
:106E000001FD94F82C3053BB206A421C12D0636AF7
:106E100001330FD001210BF0B5FC606A01210BF0AA
:106E2000B1FC94F82C502DB9606A431C02D0236A3F
:106E3000013321D1606801210BF0A4FC00216068BE
:106E40000BF0E0FC0A2008F0C7F9606801210BF0A4
:106E5000D9FC142008F0C0F90023337070BD206AFB
:106E600029460BF08FFC606A01210BF08BFC606AF5
:106E700029460BF0C7FCDDE701210BF0C3FC206ABB
:106E800029460BF0BFFCD5E7B86300206C640020F6
:106E9000024B01460422586908F048B8B863002044
:106EA00010B50B4C012160680BF06CFC0021606890
:106EB0000BF0A8FC0A2008F08FF9606801210BF0A4
:106EC000A1FC142008F088F9024B00221A7010BDB2
:106ED000B86300206C64002038B50D4D40F2E934F1
:106EE00003E008F079F9013C05D0A8690BF0A8FC93
:106EF0000128F6D038BD0749074812F015FA0748AF
:106F000012F012FABDE838400A2012F025BA00BF8C
:106F1000B8630020BCB60300C4B60300CCB60300BF
:106F200038B51E4B1E4D00241C70FFF77FFB214619
:106F3000A8680BF067FC1B4B1B4893E8060007F0A2
:106F400045FDC021184807F0A9FD2146164807F065
:106F5000A5FD154807F09CFDA86801210BF052FC27
:106F600040F2E93403E008F037F9013C08D0A869A1
:106F70000BF066FC0128F6D0BDE83840FFF758BB9F
:106F80000A490B4812F0D0F90A4812F0CDF90A204C
:106F900012F0E2F9BDE83840FFF74ABB6C6400200C
:106FA000B863002070640020A4630020BCB6030016
:106FB000C4B60300CCB603002DE9F041214E1546BE
:106FC00007460C4606F07EF9B06800210BF01AFC6B
:106FD0001D4B1E4893E8060007F0F8FC1B48394695
:106FE00007F05CFD65B1013DDFF8608014FA85F5BE
:106FF000013C14F8011F404607F050FDAC42F8D1A7
:10700000124807F045FDB06801210BF0FBFB842F0F
:1070100001D1BDE8F08140F2E934B0690BF010FC19
:107020000128F6D108F0D8F8013CF6D10849094802
:1070300012F07AF9084812F077F9BDE8F0410A2019
:1070400012F08AB9B863002070640020A4630020A5
:10705000BCB60300C4B60300CCB60300F8B5234E9B
:10706000154607460C4606F02DF9B06800210BF0D6
:10707000C9FB1F4B1F4893E8060007F0A7FC3946E1
:107080001C4807F00BFD1B48002107F007FD65B108
:10709000013D184F14FA85F5013C0021384607F0F0
:1070A000FDFC04F8010FAC42F7D1124807F0F0FCE8
:1070B000B06801210BF0A6FB40F2E93403E008F0D0
:1070C0008BF8013C05D0B0690BF0BAFB0128F6D073
:1070D000F8BD0949094812F027F9094812F024F9C6
:1070E000BDE8F8400A2012F037B900BFB8630020AD
:1070F00070640020A4630020BCB60300C4B6030083
:10710000CCB60300F8B5244E074615460C4606F0EB
:10711000D9F8B06800210BF075FB204B204893E8AC
:10712000060007F053FC0D211D4807F0B7FC390A93
:107130001B4807F0B3FC1A48F9B207F0AFFC5DB189
:10714000013D174F14FA85F5013C14F8011F38462C
:1071500007F0A4FCAC42F8D1114807F099FCB068E4
:1071600001210BF04FFB40F2E93403E008F034F862
:10717000013C05D0B0690BF063FB0128F6D0F8BDE7
:107180000849094812F0D0F8084812F0CDF8BDE8D7
:10719000F8400A2012F0E0B8B863002070640020C4
:1071A000A4630020BCB60300C4B60300CCB6030041
:1071B00070B51F4D04460E4606F084F8A8680021FD
:1071C0000BF020FB1B4B1C4893E8060007F0FEFB6E
:1071D0000D21194807F062FC210A174807F05EFCF0
:1071E000E1B2154807F05AFC3146134807F056FC47
:1071F000114807F04DFCA86801210BF003FB40F299
:10720000E93403E007F0E8FF013C05D0A8690BF082
:1072100017FB0128F6D070BD0849094812F084F820
:10722000084812F081F8BDE870400A2012F094B8C6
:10723000B863002070640020A4630020BCB6030083
:10724000C4B60300CCB60300F8B5274E0746154672
:107250000C4606F037F8B06800210BF0D3FA234B48
:10726000234893E8060007F0B1FB1D21204807F0F2
:1072700015FC390A1E4807F011FCF9B21C4807F04A
:107280000DFC1B48002107F009FC65B1013D184FBA
:1072900014FA85F5013C0021384607F0FFFB04F89D
:1072A000010FAC42F7D1124807F0F2FBB0680121A0
:1072B0000BF0A8FA40F2E93403E007F08DFF013C3F
:1072C00005D0B0690BF0BCFA0128F6D0F8BD094929
:1072D000094812F029F8094812F026F8BDE8F840EC
:1072E0000A2012F039B800BFB86300207064002093
:1072F000A4630020BCB60300C4B60300CCB60300F0
:1073000070B5224E044605F0DDFFB06800210BF099
:1073100079FA1F4B1F4893E8060007F057FB1D2121
:107320001C4807F0BBFB210A1A4807F0B7FBE1B283
:10733000184807F0B3FB0021164807F0AFFB002107
:10734000144807F0ABFB0446124807F0A1FBB068F5
:1073500001210BF057FA40F2E93503E007F03CFF5A
:10736000013D06D0B0690BF06BFA0128F6D020463B
:1073700070BD0949094811F0D7FF094811F0D4FF41
:107380000A2011F0E9FF204670BD00BFB86300205D
:1073900070640020A4630020BCB60300C4B60300E0
:1073A000CCB60300F8B5234E174605460C4605F04B
:1073B00089FFB06800210BF025FA1F4B1F4893E8A6
:1073C000060007F003FB0E211C4807F067FB1B4873
:1073D000294607F063FB67B1BDB2013D174F14FAB0
:1073E00085F5013C14F8011F384607F057FBAC4205
:1073F000F8D1124807F04CFBB06801210BF002FAFB
:1074000040F2E93403E007F0E7FE013C05D0B06943
:107410000BF016FA0128F6D0F8BD0949094811F019
:1074200083FF094811F080FFBDE8F8400A2011F001
:1074300093BF00BFB863002070640020A4630020E5
:10744000BCB60300C4B60300CCB60300F8B5254EA5
:10745000174605460C4605F035FFB06800210BF0D5
:10746000D1F9214B214893E8060007F0AFFA1E211D
:107470001E4807F013FB29461C4807F00FFB1B486A
:10748000002107F00BFB6FB1BDB2013D174F14FA9D
:1074900085F5013C0021384607F000FB04F8010F98
:1074A000AC42F7D1114807F0F3FAB06801210BF0B4
:1074B000A9F940F2E93403E007F08EFE013C05D063
:1074C000B0690BF0BDF90128F6D0F8BD08490948AC
:1074D00011F02AFF084811F027FFBDE8F8400A2004
:1074E00011F03ABFB863002070640020A46300204C
:1074F000BCB60300C4B60300CCB60300022106F0FC
:10750000CBB800BF034B1B68022B0CBF022001202D
:10751000704700BFB863002010B50A4C94F82A30B9
:107520001BB994F82C303BB910BD0120FFF72AF9A4
:1075300094F82C30002BF7D0606A0121BDE8104090
:107540000BF060B9B863002010B50A4C94F82A30EB
:107550001BB994F82C303BB910BD0020FFF712F98D
:1075600094F82C30002BF7D0606A0021BDE8104061
:107570000BF048B9B863002038B50A4C94F82C5089
:107580002DB9606A431C02D0236A013300D138BD93
:1075900001210BF037F9206A2946BDE838400BF08D
:1075A00031B900BFB863002010B5094C94F82C1015
:1075B00029B9606A431C02D0236A013300D110BD8F
:1075C0000BF020F9206A0121BDE810400BF01AB938
:1075D000B8630020034B044A1A604FF480729A800B
:1075E000704700BF7064002080841E00F8B5244BF3
:1075F000244A1D6B1563D3E9090102F1240484E8D0
:107600000300198811805C6B93F821109B8D82F820
:10761000211093851C491D4B54631D4D1D4A1E4E60
:107620001E4F30781E4E00240C601C701D491E4BEE
:107630002C6014701D4D1E4A0C701C701D492C705E
:10764000012313701C4D1D4A0B70022113702B80F7
:107650003C70346003F0E0FA194B1A481A491B4A8F
:107660001B6804700C7014701BB15C629B6A002B69
:10767000FBD11749174A00230B701370F8BD00BFE8
:10768000B46400207C64002000670020EA680020C9
:107690003C650020E466002050660020ED68002074
:1076A000546600207C69002078690020EE68002084
:1076B0004C6000204E600020326700204D600020AA
:1076C000C46800203768002030670020E968002087
:1076D0007A6900204065002008B50C48FFF71AF8C9
:1076E0000B4B1B783BB10B4A0B491368012023F06D
:1076F000040313600870094B1B78022B00D008BDEF
:10770000074A137843F01003137008BDE8660020A1
:1077100037680020EC640020E4660020C868002080
:10772000786400202DE9F04F8BB0914202934CD247
:10773000DFF810B3DFF810A30F4691460546EB5D66
:107740007C1C023BE4B2082B3FD8DFE813F0580161
:107750007F013D010801DF00A30080004100090016
:107760003B1DF91CDBB2BA1CC9B2EB5C695C285D3D
:107770008DF81C00D2B21B04AA5C9BF8000043EAFF
:1077800001231343642202FB03F307A9089303F0C8
:10779000C1FAA34BA3491B780A78C3F18003DBB27B
:1077A00005379342FFB240F23581531C9E4CDBB249
:1077B0000A260AF80260B94502F102024FF00106FA
:1077C0000AF803000A702670B9D80BB0BDE8F08F34
:1077D0002B5D9BF8000000228DF81C2013F0200286
:1077E00018BF01228DF81D20DA0648BF012203F0E0
:1077F0000F0307A948BF8DF81C208DF81E3003F039
:1078000081FA02370130FFB200F0048187499DF808
:107810001E20834B8A5C1B788249BDF81C0007EE52
:10782000902A834AF8EE677AC3F18003C2ED0C7A9E
:1078300090850A78DBB2934240F2EC807A4B0124C7
:1078400010191C7009230AF802300870E2E02A5D62
:10785000734B77491B78734802F00F02012A38BF37
:1078600001224FF47A7404FB02F21619C1E90426CE
:10787000C3F180030278DBB202379342FFB240F2D9
:10788000C980694B012411191C7008230AF80230C1
:107890000170BFE03B1DF91CDBB2C9B2BA1CEB5C46
:1078A0006E5C295D8DF81810D2B21B04AA5C9BF89F
:1078B0000000791D43EA0623C9B21343642202FB88
:1078C00003F36C5C079307AA002305A905920893AC
:1078D0008DF8244003F00EFA514B52491B780A7878
:1078E000C3F18003DBB2013B06379A42FFB280F25C
:1078F0009180541C07234C4E0AF80230E4B2931CCA
:1079000001220AF804000B70327083E0494B1B68B7
:10791000002B00F019811B68002B00F0158198479F
:107920003F4B40491B780A78C3F18003DBB2023B2E
:107930009A4280F20B81531C961CDBB2F6B24FF0D8
:10794000060C2746384C0AF802C00AF80300D31C7C
:1079500002980AF8060001220B7022705AE03B1DC3
:10796000FA1CDBB2D2B2B91CEB5CA85C2A5DC9B2CE
:107970001B04695C43EA00230B43642101FB03F30E
:10798000C2F302169BF80000089302F00F0207A949
:107990008DF81D608DF81C2003F0A4F900F007039A
:1079A0000537072BFFB200F0C3801D4B1D491B7824
:1079B0000A78C3F18003DBB2013B9A422ADA531CF6
:1079C000194CDBB20526F4E61B49154B2A5D0A70FB
:1079D00014481B78194E012101FA02F2C3F1800309
:1079E00032800278DBB202379342FFB212D90E4BDB
:1079F0005418197004230AF8023004700AE0104B7E
:107A000000225A70BA1C295D1972D2B20337AA5CDF
:107A10005A72FFB2B9453FF692AE0BB0BDE8F08F97
:107A200078690020EE680020E9680020FCB60300B9
:107A30007C640020346700207C69002032670020CD
:107A40000C6500205066002044680020404B414EE9
:107A500019788DF8221005A97378327896F82CC021
:107A600001910DF113010091601E96F820108DF820
:107A70002330A9EB070728448DF820700DF112037D
:107A800000278DF824208DF8251007900DF11102A4
:107A90009BF800008DF821C007A98DF811708DF8B2
:107AA00012708DF813708DF8147003F00BF900F05C
:107AB0000703072B31D09DF81420274B0392A3FB1B
:107AC000023C042A4FEA9C0C22D9244B1F78244BF9
:107AD0001A78244BC7F18007FFB293F800E0013F0A
:107AE00000214FF003080131531CBA42CEB2DBB281
:107AF00007DA0AF8028002320AF80300D2B24FF025
:107B0000010EB445EFD8164B1A70164B83F800E0FF
:107B1000039B5F1E3C44E7B27CE79DF811309DF863
:107B2000122073709DF81330327086F82030C2E74F
:107B3000084B9DF81C20089983F828209DF81D20EB
:107B4000596283F8212030E7FF20E9E6274661E704
:107B50007B6900207C640020CDCCCCCC78690020EF
:107B6000EE680020E9680020F0B5394D85B0FEF7D9
:107B7000E9FD2B78022B044602D0364B1B6B98474D
:107B8000354B1A78002A37D1344B354D35481978A2
:107B90006A700422427000292BD01A78324D334E7D
:107BA00042F010021A701B7813F0080304D02D4B1A
:107BB0001B78B3FA83F35B092D4A2E492E4F1278B6
:107BC00009788DF808203A702C4A8DF80910307821
:107BD000137002A9039403F019F8294A2B78146052
:107BE0002BB928491E480A784370531C0B7005B006
:107BF000F0BD01221A70D0E7234B24481968244FA6
:107C0000FEF790FD2148FEF775FD39682148FEF723
:107C100089FD2048FEF76EFD2B78134D022B01D015
:107C20002B7893B1114E122301A930788DF80430CE
:107C300002F0E4FF3B68014619441748FEF772FD65
:107C40001548FEF757FD054BADE7084E034BAAE775
:107C5000C868002038B903004D6000207864002017
:107C6000F86400200C650020376800205066002072
:107C70007A690020ED68002040650020E46800205B
:107C8000F0680020EA680020946600209C660020CE
:107C900098660020B4660020E866002070B5184899
:107CA000184C194DFEF736FD184B19491B78194A27
:107CB0000978194812782170A3F10203B3FA83F30B
:107CC00095F82D106E6A21745B09A3746274012308
:107CD0000078124A66602146E37402F0DBFF40B18F
:107CE000A37C3BB10E4B00209B6B98470D4BE27C75
:107CF0001A7070BD0A4BE8689B6B9847F6E700BFA7
:107D0000B46600201C6700207C640020C868002046
:107D10007A690020066700205066002080660020F7
:107D200038B903007969002010B51B4C2378022B69
:107D30002ED01A4B1B6B9847194B1B78B3B9194BB4
:107D40001B7813B1184B03225A70184A184B10684D
:107D500003225A70FEF7F8FC164B1B68984204D3B6
:107D6000154A137843F01003137010BD0D4B1B78A8
:107D700013B10D4B04225A7023780D4A0421022BB3
:107D80005170F2D00C4A137843F010031370ECE7F3
:107D9000FFF784FFD0E700BFC868002038B90300B0
:107DA0007969002037680020F8640020F06800201E
:107DB0000C65002098660020786400200A4B1B7830
:107DC000022B10B50DD0094B1B6B98470849094C85
:107DD0000B780948022243F010030B706270427066
:107DE00010BDFFF75BFFF1E7C868002038B903005A
:107DF00078640020F86400200C65002008B5194B59
:107E00001B78022B2BD0184B1B6B9847174B1B78FA
:107E1000B3B9174B1B7813B1164B05225A70164A8B
:107E2000164B106805225A70FEF78EFC144B1B6827
:107E3000984204D3134A137843F01003137008BD1B
:107E40000B4B1B7813B10B4B06225A700D4A0B4992
:107E50001378062043F010031370487008BDFFF735
:107E60001DFFD3E7C868002038B9030079690020F6
:107E700037680020F8640020F06800200C650020BE
:107E8000986600207864002070B51A481A4C1B4D83
:107E90001B4E82B0FEF73EFC1A4B1B4A1B781B4858
:107EA0001278237095F821301949E37095F82D3038
:107EB00000782374022A4FF00003607463820B7011
:107EC00001D1736B9847134B134A18780A4902F093
:107ED000E1FEA37C33B9B36BE868019302B0BDE85F
:107EE00070401847B36B0193002002B0BDE87040AA
:107EF000184700BF9C660020086700207C640020B3
:107F000038B903007A690020C8680020066700209D
:107F10007969002050660020806600202DE9F04F2E
:107F20002DED028BB74EB84CB84DB94F367866740C
:107F300093B05FFA83FB00230646E28163800F93D0
:107F40006371A360A381A374636123703B7184F8A0
:107F500010B02B6B0D469847AE48FEF7DBFB96F84A
:107F600000904FEA5913013B062B00F2B080DFE886
:107F700013F0C900AE000700AE000700AE00FA0023
:107F8000A54BA64A1B7892F82D2021798DF83A202E
:107F900009228DF839108DF8382013B10A238DF895
:107FA00038309F4B0EA9187802F028FEA5F10D037A
:107FB0001BB223EAE373834200F2F780994BD6F8B1
:107FC00001A01B68534500F0BB81974BD3F800809C
:107FD000B8F1000F00F07282434603E09B6A002B69
:107FE00000F06C821A685245F8D19846043308EEC6
:107FF000103A08F114030C93D8F8243005930123A8
:108000000B93711996F807E011F8023C11F803CCB4
:10801000B27911F8040C11F8011C1B0442EA0E227B
:1080200043EA0C2E059B96F805C0CDF818C0D21A6D
:1080300040EA0E0013B240EA0161002B90B20CF04E
:108040000F02079108900992C0F20481059B034436
:10805000184605932B1F19460A930FAA0123019076
:1080600089B20292009318EE102A5346304601F06E
:10807000A7FE0F9B07998B4200F00681684B0EA963
:10808000187811238DF8383002F0B8FD089B834230
:10809000C0F00782654D664E2B68059932786161A4
:1080A00043F040030A212B606170002A00F08980B0
:1080B0006048FEF72FFB3378002B00F082802B689E
:1080C0005D4A23F0040301212B60117079E0574DC4
:1080D000574E2B68327843F0400301272B606770BE
:1080E000002A40F08180554F55483B7823F0120319
:1080F00043F0120301213B70FEF714FB5048FEF7DA
:10810000F9FA42E04F4F3B78002B4ED14E4CDFF84E
:108110004081691E701CD8F80020631C89B202F0EF
:1081200071F8291FD8F8002084F80090204689B201
:108130000FAB02F045F861190F9A11F8023C11F8E3
:10814000036C11F8040C11F8011C1B0443EA06230C
:10815000034343EA01639A4200F045813B4B374FAA
:1081600007225A7011E0DFF8E080344F2A46711C74
:10817000404605F07FFC3B78C4F80880013D43F0A1
:10818000020303223B70257322803B782C4843F086
:10819000100301213B70FEF7C5FA2948FEF7AAFA41
:1081A00013B0BDEC028BBDE8F08F204D204E2B6844
:1081B000327843F0400301272B606770002A40F0BB
:1081C000D7801E4A1E48137823F0120343F012038F
:1081D00001211370FEF7A6FA1948FEF78BFA13B0C7
:1081E000BDEC028BBDE8F08F1248FEF793FA3378AE
:1081F000002B3FF478AF2B680F4A23F004032B6069
:10820000177070E7796900207C66002038B9030098
:10821000F8640020B4660020066700207C6400201B
:108220005066002068660020C4680020EC640020CE
:1082300037680020E8660020E466002078640020AB
:10824000CC680020ED680020386700200C65002015
:1082500048650020059A02F58032D118281F0FAA20
:1082600001230D910A900191029281B218EE102A19
:1082700000933046534601F0A3FD0F9B079A9342AB
:108280007FF4FCAE0D9B0593B34B0EA91878112318
:108290008DF8383002F0B2FC089B8342BFF4FAAE8E
:1082A000059A6261069ADFF808C3AC490B98A07082
:1082B0000023C2F30012CCF800306370A360237374
:1082C0007B700B70627100287BD1A54AA5481168AC
:1082D00009F0E009B9F1A00F3ED023700370059BAF
:1082E000994200F0FD804FF00008059B13603B7839
:1082F000012B74D09C4B00221A7009990A9B01F142
:1083000008029B1A002B41DD01F10909B35CE370FF
:10831000A5EB0905043DEDB2002B40F0A680069BBD
:1083200013F00F03079300F0458101238F4F3A7834
:108330009B0043F0020322F0060213433B7024E744
:10834000874B8B4A1B6805938A4B0C9208EE103AB8
:1083500000230B93984654E6012303702370059B7A
:108360009942C0D1B3F1000818BF4FF00108BCE733
:108370008148FEF7CFF93378002B3FF422AF2B680A
:108380007E4A23F004032B6017701AE7069B1B0735
:1083900011D1B8F1000FC8D1069B13F0200540F0B1
:1083A000AF80774A774B12781B783D719A4200F282
:1083B00016812B46BAE75B4630460821FFF7B2F933
:1083C000E7E70222D8F824302270059A934200F0A1
:1083D0009F80059BC8F824304FF0000887E7069B74
:1083E00098068AD586E7684A614BD8F8000012885B
:1083F0000093611C5F4B654E01F026FFA379617904
:1084000094F804C06248E27A1B0443EA012343EA79
:108410000C0360490360237BD4F80700086013F065
:108420000F03C2F3021102F00F0286F8211086F842
:10843000282050D04FF47A7202FB03F39C18464A6E
:1084400033611078544B109310A9113D8DF84450AE
:10845000746102F0F1FB514B514A5B78737000215B
:1084600001233B705170414F8FE6069B19076DD178
:108470004C49059B01934FF0010B06EB090002915B
:108480000E460C9ACDF800B05346294601F090FEF6
:10849000B8F1000F7FF449AFA660257384F80DB0E2
:1084A0007AE7414D414E2B68327843F040030C216E
:1084B0002B606170002A3FF484AEF9E53A4D3B4EE3
:1084C0002B68327843F040030B212B606170002A47
:1084D0003FF477AEECE54FF4FA644FF47A73AEE70D
:1084E000002B3FF400AF304D304E2B68327843F014
:1084F000400308212B606170002A3FF462AED7E58B
:1085000001231D483B71A374FEF704F900230DE716
:10851000002A3FF45EAF244D244E2B68327843F09E
:10852000400308212B606170002A3FF44AAE1248D4
:10853000FEF7F0F83378002B3FF443AE2B680F4A78
:1085400023F004032B600B9B13703AE65B46082173
:108550003046FFF7E7F88BE7506600207869002087
:108560000067002030670020EE680020786400205B
:10857000586600206C660020E8660020E466002053
:108580004E6000204C600020046700207C640020C6
:10859000386500206866002045670020B46400202C
:1085A0000C65002038670020EC640020376800204C
:1085B0003C650020059B019306EB090001210A4E52
:1085C000009118EE102A53462946029601F0F0FD5C
:1085D00007995B462A463046FFF7A4F8D9E60348D8
:1085E000FEF798F82B46A1E638670020E8660020E1
:1085F0002DE9F04FDFF8E4C2A54E8BB00024BDF8A2
:1086000050E034800F4690461D4606948CF800409A
:10861000002B00F098805FFA8EF29E4C0378237056
:108620000378DFF8BC925B0989F80020072B05D896
:10863000DFE803F09D040C040904048C02221046B8
:108640000BB0BDE8F08F01238CF80030924B1B7803
:10865000002B00F08681914B39781A889048009061
:10866000DFF880C2D0F800E09CF80000CDF820E0F0
:1086700052BAC909ADF8242093F82C208DF8262091
:108680008DF81D105A1C4FF0010C07A98DF81CC065
:1086900002F0E0FA834A3B78117860F386133B706E
:1086A00029B1DBB243F0200300213B7011707E4BF7
:1086B0007E491B6808786370190A1A0CDFF828A233
:1086C000E2701B0E2371A170DFF820B2784A39786E
:1086D000BAF8003012786171E3807649584405F0A9
:1086E000C9F97249724A0B7812781344DBB20B70E5
:1086F000002D7DD099F80010002979D06E4A05929E
:108700001278002A00F0F4800F2B00F252813A78A0
:108710000493C2F30300184460F303023A7098B262
:108720006271002B6BD0421E92B2013259466348EF
:108730000FF05CFF049B03F10801CAB20492059993
:1087400000220A70D8E01A469E4666E7002D4AD0FD
:10875000002A3FF474AF5FFA8EF25948294605F0BB
:1087600089F999F8003001333380002267E7554BCF
:1087700053481968544D01230822338005F0B6F997
:108780003388524A08339BB211683380E0180822BC
:1087900005F0ACF933884E4A08339269338090472C
:1087A00031884C4B60541A684F1C83B22B80BFB287
:1087B0008D1CADB21B0AE355E9B23648358006ABD5
:1087C00001F0FEFC3388069AE2545D1C981CADB2A1
:1087D000D91C170A80B289B26755150C120E2554A0
:1087E000043362543380002210460BB0BDE8F08F92
:1087F000002B40F0BE80304B99F800100593059A8D
:10880000002313702A4A0023137008230493E5B150
:10881000D9B1049B5F1C04F80380FFB2B8F1000FCC
:1088200040F0B380E3190293DAF8003001931F4A55
:108830001D4BCDF800801B6882F800802846264A30
:1088400001F0F8FA99F800100497049B11480B44C2
:108850001946DAF800300193134B318006AA00253F
:108860001B68029200951C4A01F0AAFA3288069B06
:10887000A3541444111D180C2A461F0AA0701B0E85
:10888000104631806770E3700BB0BDE8F08F00BF19
:10889000E66800204C650020ED6800207C64002024
:1088A0003C6500203067002068660020EE680020EC
:1088B00078690020F8680020E968002054650020ED
:1088C0004D65002044650020046700204C660020B0
:1088D00038B90300486500206C6600203768002026
:1088E000E86800205066002054660020446800209C
:1088F000002B87D0082204920021DFF8DCC00A4652
:108900001BF80270F81E072811D8DFE800F01D10D0
:1089100004271D2010040132481CD2B2C0B21BF83B
:1089200002E00CF8017002310CF800E0C9B201322B
:10893000D2B29342E4D8234B1970B9B1059A99F891
:1089400000100123137062E70132D2B2EFE7481C36
:108950004FF008070CF80170C1B2E8E70232D2B25A
:10896000E5E7072210460BB0BDE8F08F99F800103C
:108970004DE7154A05921278C2B10822134D89F8C5
:1089800000304FF000080492D9E6DAF80030E2191E
:1089900002920022CDE900230D4B0E4A1B682846A7
:1089A00001F048FA99F8001004974EE70822049263
:1089B000C5E6082289F800304FF000085D460492B1
:1089C000BDE600BF78690020E96800204468002007
:1089D0006866002058660020F8680020F0B5294C31
:1089E000294B226B294D616B1B7887B0039262780B
:1089F0008DF808000491207829888DF8092000223C
:108A00008DF80A00ADF814108DF807203BB1204A0C
:108A1000204B12781B788DF808208DF809301E4FF6
:108A20001E4A1F4E10783B460DF1070202A902F0C4
:108A30003BF91C4A63783F6893709DF807401A48D9
:108A4000976001234FF47A7173705370D47077601C
:108A5000FDF768FE1448FDF74DFE144B1B781BB95B
:108A6000134A137801331370124B2978DB6A1248CA
:108A70009847124A1368002043F00103136007B0BF
:108A8000F0BD00BF7C640020226D0020E66800205D
:108A9000236D0020A0600020F064002050660020BC
:108AA0000C650020F8640020CC680020ED680020F0
:108AB0003C68002038B903004C650020EC640020BD
:108AC0002DE9F043644B1B7889B00022FF2B039201
:108AD00000F0BE80614E002B7ED0614BDFF8C49168
:108AE000604F6148197899F800203B78DFF8B88129
:108AF00000688DF817108DF814208DF81630FDF7EA
:108B000023FE5A4DD8F80020594B5A4C1B788DF84B
:108B10001530CDE9060205A9287802F00BF9564B6D
:108B2000D8F800001B88326854493F7809688DF8EE
:108B30001E70013B00FB032399F800006278504F40
:108B4000DFF86881336005938DF81D008DF81C20D7
:108B5000069104E098F9013063708DF81C3000969E
:108B6000287803AB3A4605A902F0EAF80028F1D0CC
:108B70002E7894F9213094F9012094F82D10DFF823
:108B80003081404F304602F0F1F86368227ACDF828
:108B9000008041B2304602F06DF800976368227A97
:108BA00094F92810287802F065F899F80030ABB9EC
:108BB000D4E90623D8F80C60FD68334933482B44C8
:108BC0000B6003993244026069BB2D4B1878FFF7A4
:108BD00005FF09B0BDE8F08333607EE72C4B94F9C4
:108BE00001202C4E2C481B7894F82C108DF8112065
:108BF0000922367890F800908DF812108DF8102028
:108C000013B10A238DF81030287804A901F0F6FF7B
:108C100006EB090380B2984201D3FF2B12D908203A
:108C200009B0BDE8F0831D4A1D48136843F01003E6
:108C30001360FDF777FD1A48FDF75CFD002009B0D1
:108C4000BDE8F083D4E90423D8F80C60FD68B4E7EC
:108C5000092009B0BDE8F0837C6900203868002055
:108C600040650020F4640020F46800205066002075
:108C7000E46800207C64002032670020F068002057
:108C80007A6900201C670020986600209466002006
:108C900006670020E8680020EE680020EC640020F1
:108CA000CC660020ED680020F0640020B464002051
:108CB0000867002070B51B4886B0FDF72BFD1A4AE7
:108CC0001A491368097823F0100313600B0702D5C3
:108CD000174B1C781CB1FFF7F3FE06B070BDFEF712
:108CE00085FC144B144A1B781078144E013305A9E7
:108CF000ADF8143002F016F8114B70701B78009428
:108D0000254663F3C7152246234604A903A88DF818
:108D10000C408DF81050FFF76BFCFFF7D1FE06B04A
:108D200070BD00BFCC660020EC6400207864002099
:108D30000C6500203C680020506600207C64002008
:108D40007B690020F0B5984D9848994E83B0FDF7A7
:108D5000E1FC2B783468DA0649D5670644BF24F075
:108D60004104346013F0090F7CD0924A51780229F3
:108D700000F082809049487802287DD08F4A12788E
:108D8000002A6FD11A0700F1D6808D498D4A91F8DB
:108D900020001178884240F2E38013F0020359D09A
:108DA000894909780020107019B988490A68013288
:108DB0000A6024F001043460002B6ED07D4A1379E0
:108DC000002B00F0B580824B19787F4BDFF818C27A
:108DD00018787A4F00238CF800303B7018B97B4824
:108DE00003680133036024F0010434605171A70764
:108DF00044BF24F002043460002C6ED12B78DE07CF
:108E000009D5744B6B481B681B6898472B7864F333
:108E100000032B70DBB21C0712D42B786FF3041302
:108E20002B702B78980709D56B4A1278022A5DD0EF
:108E300059071BD52B7823F006032B7003B0F0BD28
:108E4000644B5D481B689B6898472B786FF3C3039E
:108E50002B70E2E72A7863F304122A70FFF72AFFE7
:108E60002B78346803F00203BBB1A7E7594B5B488A
:108E70001B685B689847DDE75549594F0978517180
:108E8000002024F00104387010719060980734605D
:108E900003D5544B1B788B4297D3534B1A78002A37
:108EA000A5D014F01002A2D1494F4E491A703B7858
:108EB0000A789A4220D9082B1ED80133DBB23B70C6
:108EC000DB0700F19980FFF7FBFD002853D12B78D9
:108ED000346860F304132B7089E734484FF47A71D7
:108EE000FDF720FC3148FDF705FC9AE7FEF7D6FEBA
:108EF0002B7859079ED4B9E73C4B0121187801F033
:108F00008BFE314B2B4A19783B7834685371002320
:108F100033481371294A037024F00104137034603C
:108F200000297FF464AF294A1368013313605EE7B8
:108F3000274B1978ADE70A78002A7FF426AF2C4F2B
:108F40003F788F72002869D120491E4A086024F0BA
:108F5000010403F0020334601070002B9DD02DE754
:108F600013F002037FF41CAF22481D4F01683B70D1
:108F70000131016014E7124A0E4B387852781249D9
:108F8000346858719A700920002258701A71144878
:108F90000A4B0978027024F001041A703460002929
:108FA0007FF425AFBFE700BF78640020CC680020C5
:108FB000EC640020F86400200C6500203768002075
:108FC0007C640020EA680020EB68002054660020E2
:108FD0004E60002040680020C86800207C660020A9
:108FE000EE6800204C600020E466002050660020FF
:108FF0003C6800203C650020164C174A94F82C3041
:1090000010788DF8063062788DF80520202301A9AC
:109010008DF8043001F0F2FD607054E70F490978D3
:10902000B94208D824F0010403F002033460002B95
:109030003FF433AFC2E62B7862F304132B70FFF7D3
:1090400039FE2B78346803F00203002B3FF425AF80
:10905000B4E600BF7C64002050660020EC6800206D
:10906000002800F029812DE9F041036882B0044610
:10907000002B00F01D814368002B00F019818368EC
:10908000002B00F0158110460E46154601F0B0FD8C
:10909000002800F00981894F89498A4B8A4A0C606F
:1090A0001E603D7089498A4BDFF884E2DFF884C294
:1090B000DFF88482874C284600251570864A0D709B
:1090C000012601A91D600B23CEF800508CF800503A
:1090D00088F80050256016708DF8043001F08EFD80
:1090E00003465B1B7D4A38787D4CDFF8508218BF01
:1090F0000123137001A908238DF8043001F07EFDCF
:10910000034601A92370387805238DF8043001F057
:1091100075FD034601A9637038780C238DF804307F
:1091200001F06CFD034601A9E36038780D238DF84A
:10913000043001F063FD034601A9236138780E2352
:109140008DF8043001F05AFD034601A963613878B7
:109150000F238DF8043001F051FD034601A9A361EE
:10916000387810238DF8043001F048FD034601A93A
:10917000E361387813238DF8043001F03FFD034696
:1091800001A984F82130387814238DF8043001F0D7
:1091900035FD034601A96362387815238DF8043044
:1091A00001F02CFD034601A984F8283038781A23F1
:1091B0008DF8043001F022FD034601A984F82C301B
:1091C00038781B238DF8043001F018FD034601A9FF
:1091D00084F82D3038781C238DF8043001F00EFD12
:1091E000034601A9236338781D238DF8043001F06C
:1091F00005FD294603463878636301F00DFDD4E987
:109200000372384B84F82060D4E905011A61E269E1
:10921000DF60C3E9061258610A27062083F8206040
:109220005F60187267602072FEF7E0F92E492F48E0
:109230002F4C304FFDF714FA2C484FF47A71FDF79C
:1092400071FA2D492D48FDF70BFA2D492D48FDF7F0
:1092500007FA2D492D48FDF703FA2D492D48FDF752
:10926000FFF9FDF76FFA01462B482C4B2C4A04609E
:1092700083602C4C2C4B07614460C360D8F80030ED
:1092800011609847D8F81830984704F0CDFB274A6A
:10929000D8F86030167030469847D8F83030984784
:1092A000284602B0BDE8F0810A2002B0BDE8F08196
:1092B000032002B0BDE8F081032070475066002013
:1092C0004068002034670020C8680020066700203E
:1092D000F068002038680020EC680020F46400206A
:1092E000B46400207C640020458D0200CC6800201E
:1092F000697B0200FD7D0200B58C0200CC66002077
:10930000897E02009C6600209D7C0200B4660020DD
:10931000D9760200E8660020186500201D7F020053
:10932000F4680020BD7D0200297D02005166002006
:10933000EC6400203C6800207864002038B9030009
:109340002DE9F04FDFF808B1DFF808A13C4B9AF89F
:1093500000209BF8004089B014445A781B788DF89F
:109360000A208DF80B30002965D0364E364A3388F6
:10937000DFF8E48096F82CC0DFF8E0908DF81EC08E
:109380000D4632490978009212688DF815105BBAC3
:10939000ADF81C304FF0000C0DF10B03069205A93F
:1093A0000DF10A02074698F800008DF814C001F08C
:1093B00051FC96F82C2099F800309DF80A108DF891
:1093C0000E200922E4B28DF80D108DF80C2013B197
:1093D0000A238DF80C3098F8000003A901F00EFC68
:1093E000C0B2A042687023D200238BF800308AF804
:1093F0000030287096F82C2099F800309DF90A105A
:109400008DF8122009228DF811108DF8102013B15B
:109410000A238DF8103098F8000004A901F0EEFB43
:1094200080B2B84234BF0820002009B0BDE8F08FF8
:10943000001BC0B2DDE7032009B0BDE8F08F00BF1C
:10944000B46400207C6400203C6500207B6900201F
:10945000EE68002078690020506600200667002032
:10946000B8B110B50446007882B01D2800F2B08073
:10947000DFE800F0AAA5A09B96928E89848179717D
:109480006E635D58534E49443F3A35302B26211CBC
:109490001711032070474F4B5B6B6360002002B0D5
:1094A00010BD4C4B1B7A23710020F8E7494B5B68D9
:1094B00063600020F3E7484B1B6863600020EEE721
:1094C000464B1B6863600020E9E7454B1B686360FF
:1094D0000020E4E7434B1B7823710020DFE73D4B7E
:1094E0001B7823710020DAE73A4B5B782371002068
:1094F000D5E73C4B5B7823710020D0E7354BDB6927
:1095000063600020CBE7334B9B6963600020C6E7B4
:10951000304B5B6963600020C1E72E4B1B696360C1
:109520000020BCE72B4BDB6863600020B7E7294BCA
:1095300093F8203023710020B1E72B4A17231078CD
:109540008DF8043001A901F059FB60600020A6E706
:10955000254A1623F3E7254B93E80300043484E8F7
:10956000030000209BE7224B93E80300043484E8C7
:109570000300002093E71C4A1923E0E71D4B1B78EA
:10958000237100208BE71C4B1B782371002086E79A
:109590001A4B6360002082E7194B636000207EE76E
:1095A000184B1B686360002079E7174B1B686360EA
:1095B000002074E7154B1B78237100206FE7144BD4
:1095C0001B78237100206AE7124B1B78237166E732
:1095D000022064E77C640020C4680020006700204B
:1095E00054660020B464002050660020D864002037
:1095F000A064002006670020516600205866002005
:109600006C66002068660020386500207B690020B9
:10961000ED680020C8680020F0B585B0002838D07B
:109620009F4B1B68DB0724D4057804461D2D00F2F0
:109630008E81DFE815F07D01780173016E0169010B
:109640005F0155012D0128018C01DC00C400B70029
:109650002200AD00A800A3009E00990094008300A2
:10966000720061004F004A0045008C013E00370047
:1096700032000125284605B0F0BD8A4A43680293AE
:109680001078012302A98DF80C3001F0DBFA0028D4
:1096900030D10325284605B0F0BD834B42685A639C
:1096A0000025E7E78149804A03790B721372002590
:1096B000E0E77E497C4A43684B6053600025D9E768
:1096C0007B4B42681A600025D4E77A4B42681A60E7
:1096D0000025CFE7734A037910788DF80830082207
:1096E0000DEB020101F09EFA0028D2D06F4B9DF8DD
:1096F00008201A700025BDE76A4A037910788DF8B2
:109700000830072202A901F08DFA0028C1D0664B6B
:109710009DF808201A700025ACE7624A037910789A
:109720008DF80830042202A901F07CFA0028B0D09C
:109730005D4B9DF808205A7000259BE7594A037934
:1097400010788DF80830052202A901F06BFA002884
:109750009FD0564B9DF808205A7000258AE7524B3F
:109760004268DA61002585E74F4B42689A6100251F
:1097700080E74D4B42685A6100257BE74A4B4268BF
:109780001A61002576E7484B4268DA60002571E7E8
:1097900003795A1E0E2A3FF67CAF434A002582F811
:1097A000203067E73F4A436802931078002302A9FC
:1097B0008DF80C3001F046FA00289BD169E73A4A4F
:1097C000384B92F82D2018788DF80920237A8DF8DF
:1097D0000830062202A901F025FA00283FF459AF0B
:1097E000D4E90101344B002583E8030042E72E4D04
:1097F0002C4E95F82D20237A8DF8092030788DF89D
:109800000830062202A901F00DFA00283FF441AF0A
:109810002A4BA1681A78606805F12403022A83E8BC
:1098200003007FF467AF264B1B78002B3FF462AF39
:10983000244C009430786B682A7A95F9281001F04E
:1098400019FA214B214A1B78696A237040F20113EF
:10985000307895F82D70167861601D4A6382214634
:109860002774667401F016FA00283FF412AFA37C47
:10987000002B78D1174BE8689B6B9847164BE27C1E
:109880001A700025F6E6114B02791A700025F1E6F0
:10989000104B124A00791B6E107000259847E9E6BC
:1098A000EC640020506600207C640020B46400203A
:1098B0000067002054660020D8640020C86800209B
:1098C000ED6800201C6700207A69002006670020F0
:1098D0008066002038B903007969002051660020B5
:1098E000416800293FF4D5AE2148102204F0C2F8A7
:1098F0000025BFE6416800293FF4CBAE1D48102289
:1099000004F0B8F80025B5E61B4B42681A60002544
:10991000B0E61A4B42681A600025ABE6184B027994
:109920001A700025A6E6174B02791A700025A1E6E9
:109930000379154A012B137011D0022B09D0002B8B
:109940007FF498AE114A126B1D46904792E60225AD
:1099500090E60F4B00221A70FEF7A0F98AE60B4B37
:109960001B6B984786E6094B00209B6B984785E761
:10997000586600206C66002068660020386500206C
:109980007B690020ED680020C868002038B903001A
:1099900037680020002800F0E1802DE9F041774D84
:1099A000296811F001018AB003D001200AB0BDE896
:1099B000F081734E04460C22304604F0A9F820785A
:1099C00001237370032800F2D580DFE800F0583FD0
:1099D00020026C4A6C4913784F6CA06894F90C1003
:1099E00043F0080313700323A2883370B8474FF481
:1099F0007A716648FCF796FE6448FCF77BFE2B689C
:109A0000002043F001032B600AB0BDE8F0815D49FE
:109A10005F4B0A78A0885F4FADF8240042F008023F
:109A20005D483C780A701A6B59788DF81840079297
:109A30005C6B1A788DF8191002230078089406A937
:109A40008DF81A20337001F08BF9D0E7534B4D4D50
:109A50001B78534F2A783978C3F18003DBB242F088
:109A6000080201248B422A70347069D94D4A4E4B4A
:109A700002205054214439701C70002096E72B6856
:109A8000DB0692D46368002B64D0A368002B61D0FE
:109A9000E368002B5ED0237C002B5BD03E4F8DF81B
:109AA000143038781E2205A901F0BCF8002857D0E0
:109AB000227C344DDFF80CE12B78DFF80CC13B48F9
:109AC0003B49DFF808810A7043F008032B70636894
:109AD000CEF80030A368CCF80030D4F80CC023785E
:109AE000C0F800C00024337088F800408DF80840AA
:109AF000FDF77CFD98F800303878254F013304A934
:109B0000ADF8103001F00EF92A4B1B780094844612
:109B1000264663F3C7162246234603A902A887F800
:109B200001C08DF80C60FEF763FD48B9224B234A53
:109B300098801268DA60FEF7C3FF00283FF436AF62
:109B40002A781F49002363F3C3022A700B700AB0FE
:109B5000BDE8F08103200AB0BDE8F0810320704722
:109B60001F2338788DF8183006A901F047F8C2B2E3
:109B700022749EE7034D0220E2E700BFEC64002060
:109B80000C6500207864002038B90300CC68002000
:109B90007C6400207A6900205066002078690020EB
:109BA000EE68002044680020E96800204865002035
:109BB000EC6800207B690020F864002054660020D7
:109BC000376800204C660020446500203C68002077
:109BD000002800F0B3802DE9F04F594B1D6815F0B7
:109BE000110587B003D0012007B0BDE8F08F554EB6
:109BF0008DF80850044614222946304603F088FFA9
:109C0000237851490122934272700A7014D0032BB9
:109C100000F08580002B71D04C494D4B087893F8AB
:109C20002C308DF8142005A98DF8163000F0E6FFD1
:109C3000022007B0BDE8F08F464A9DF80830E17B6E
:109C40001170042262F347132579D4F80890B4F810
:109C50000CA094F90EB08DF808303D4F3B4B97F8AF
:109C60002C20DFF800818DF8162005A90122187834
:109C70008DF8142000F0C2FF98F80010A1B9334B02
:109C8000834538BF83460422187897F82C308DF826
:109C900010B004A98DF8123000F0C4FF50B39DF845
:109CA000103098F800107B704FF0000761F3C71771
:109CB000CDF800A04B462A4603A902A88DF80C70E7
:109CC000FEF796FC80B9244BB0801B68F360FEF76A
:109CD000F7FE48B9214A21781378317043F0010327
:109CE000137007B0BDE8F08F1D4B00221A7007B04B
:109CF000BDE8F08F032007B0BDE8F08F15499DF84F
:109D000008300A70022262F347132579D4F80890CC
:109D1000B4F80CA094F90EB08DF808309DE79DF8CA
:109D200008300C49D4F80490B4F808A094F90AB0AB
:109D30000A7043F0E0038DF808308EE70320704787
:109D4000EC640020F86400204E6000205066002083
:109D50007C6400204C600020546600207864002061
:109D6000376800207B69002010B5074B82B004469D
:109D70000B2218788DF8044001A900F053FF08B1B8
:109D8000024B1C7002B010BD50660020F46400202D
:109D900030B40648064D074C0749084A00236B704B
:109DA0006370437030BC4B70537070479C660020EA
:109DB000CC680020CC660020B4660020E866002055
:109DC0002DE9F04182B0184C099F184D01921A0CF0
:109DD0002272E3801A0E9DF82030627280463A0C9F
:109DE000637128463B0E63730E462273E1736781ED
:109DF00004F084FA01990E4F284604F08FFA2146A8
:109E00002846102204F090FAF2B24146284604F0A7
:109E10008BFA2946384604F075FB3B680A9A1360B2
:109E200002B0BDE8F08100BF5060002080690020D2
:109E30008C6B00202DE9F04F83B00C460D9EDFF8AF
:109E400060829DF830A0019491460021F0220546E1
:109E500091480E9FA3461C4603F05AFE8E4A1021DD
:109E6000484604F043F9330E88F80D305B46200C69
:109E7000210E320C0F2B88F805A0A8F80640A8F890
:109E80000A6088F8080088F8091088F80C2040F269
:109E9000FE80824E804AABF110093146C9F30B199E
:109EA0004FF0000BC2465FFA8BF31C01E4B20133A2
:109EB000504688F80F3004F019FA2B5D3078774956
:109EC000754A43403B55601C96F801C02B5C83EA01
:109ED0000C033B54A01C96F802C02B5C83EA0C03D5
:109EE0003B54E01C96F803C02B5C83EA0C033B5404
:109EF000201D96F804C02B5C83EA0C033B54601DC4
:109F000096F805C02B5C83EA0C033B54A01D96F821
:109F100006C02B5C83EA0C033B54E01D96F807C097
:109F20002B5C83EA0C033B5404F1080096F808C04C
:109F30002B5C83EA0C033B5404F1090096F809C03A
:109F40002B5C83EA0C033B5404F10A0C96F80AE0FC
:109F500015F80C3004F10B0083EA0E0307F80C30FF
:109F60002B5C96F80BC083EA0C033B5404F10C0005
:109F700096F80CC02B5C83EA0C033B5404F10D00F3
:109F800096F80DC02B5C83EA0C033B5404F10E00E1
:109F900096F80EC02B5C83EA0C033B540F3496F802
:109FA0000FC0285DD94580EA0C0038550BF1010B34
:109FB0007FF479AF019B09F10104240103F00F0341
:109FC0000193E4B209F1020913B903B0BDE8F08FBF
:109FD000324E314A324888F80F90314604F086F903
:109FE000221D07EB020EB64505EB02008CBF0021D7
:109FF00001213B1906F1040805EB040C434528BF79
:10A0000041F00101F44538BF83422CBF01200020FC
:10A01000084247D00198411E042943D9DCF80010BA
:10A02000326880084A4001281A600CD0DCF804101D
:10A030007268022882EA01025A6004D0DCF8082023
:10A04000B1684A409A60019A22F003039BB293429E
:10A05000BBD0E11816F803C0685C80EA0C007854A5
:10A060005A1C019992B29142AFD9A118B05C6A5CB6
:10A0700042407A540233019A9BB29A42A5D91C44B9
:10A08000F25C2B5D53403B5503B0BDE8F08F019B64
:10A090004FF00109002497E7986A00209C6B00208C
:10A0A000606000202B5D317801984B4001283B55C2
:10A0B0008BD0631C7078E95C41400198F954022808
:10A0C00083D0A31CB078E95C41400198F95403287F
:10A0D0003FF47BAFE31CF078E95C41400198F95410
:10A0E00004283FF472AFAB5C3179052883EA0103A1
:10A0F000BB543FF46AAF631D7179EA5C062882EABB
:10A100000102FA543FF461AFA31DB179EA5C07285C
:10A1100082EA0102FA543FF458AFE31DF179EA5C98
:10A12000082882EA0102FA543FF44FAF04F1080311
:10A13000317AEA5C092882EA0102FA543FF445AF19
:10A1400004F10903717AEA5C0A2882EA0102FA54EE
:10A150003FF43BAF04F10A03B17AEA5C0B2882EAD0
:10A160000102FA543FF431AF04F10B03F17AEA5CD7
:10A170000C2882EA0102FA543FF427AF04F10C03E1
:10A18000317BEA5C0D2882EA0102FA543FF41DAFEC
:10A1900004F10D03717BEA5C0E2882EA0102FA5495
:10A1A0003FF413AF0E34B27B2B5D53403B550CE7AD
:10A1B00010B49DF8044001945DF8044BFFF73ABEDB
:10A1C0002DE9F8430D4CDFF83880914606462046CD
:10A1D0001D460F4604F092F84946204604F09EF8CA
:10A1E000FAB23146204604F09FF82146404604F07A
:10A1F00089F9D8F800302B60BDE8F8838069002029
:10A200008C6B0020F8B5174604460E460D48F02228
:10A2100000211D4603F07CFC0A4A1021384603F059
:10A2200065FF084A2946204604F060F80F2E00D842
:10A23000F8BD05F1100104F11000024ABDE8F84034
:10A2400004F054B8986A0020F0B5244C87B00D464D
:10A25000074616462046F0220021ADF806601E464D
:10A2600003F056FC22463846102103F03FFF02A8B7
:10A270001022002103F04CFC012329460DF10900B6
:10A2800006228DF8083003F0F5FB0DF106010DF103
:10A290000F00022203F0EEFB2246314602A804F032
:10A2A00025F802A81022002103F032FC02262946DC
:10A2B0000DF1090006228DF8086003F0DBFB324641
:10A2C0000DF106010DF10F0003F0D4FB0C992246AD
:10A2D00002A804F00BF807B0F0BD00BF986A002098
:10A2E000704700BF43782BBBF0B5B34C25788BB0DB
:10A2F00025B1B4F846300133A4F84630437BBBB1F6
:10A30000C378E02B17D0027B81688DF819300024C8
:10A310008DF81820A94B8C541B68027C81688DF83D
:10A320001C20C289DB680591ADF81A2005A8984762
:10A330000BB0F0BD704735B9037B042B0ED0A0489D
:10A34000FCF7E8F9F4E7826813786370072BEFD81D
:10A35000DFE803F0A29F9B96776CB96383681A7855
:10A36000012AECD15A78012AE9D19A78012AE6D15A
:10A37000DE78012EE3D140F201130227238002A8E8
:10A38000A4F84850A4F8465084F84A50A5702771A4
:10A390008DF80870FFF764F88A4B9DF80C201A704E
:10A3A00002A88DF808708DF80C60FFF735F9284683
:10A3B000FFF7DAFC84498248FCF752F9804841F201
:10A3C0008831FCF7AFF994F84830002B00F0DB80BF
:10A3D00094F8492094F84A3084F8485040F20351E8
:10A3E0006670A180A271E371207901A9FEF7A8FF30
:10A3F000002800F0B98000238DF814300793ADF8E1
:10A4000020308DF822306E48FCF774F905A8FFF76C
:10A41000DFFB2378002B8BD191E7037B032B74D0D8
:10A42000072B00F085800123637081E7012305A8D5
:10A430008DF81430FFF7AEFA2378002B7FF478AF55
:10A440007DE7037B2371F22B4FF004011D4628BFEB
:10A45000F225012B61717FF66BAF5278022B02F16E
:10A460000102A2717FF664AF584902238268D25C70
:10A470000133DCB20132AC4201F8012FF6D357E7C9
:10A4800000220123A270637052E70123A37063705E
:10A490004EE7022323714BE74A4A12788DF81820C1
:10A4A0000023022205A8A4F8463023708DF814205A
:10A4B000FFF7B2F8464B1878FFF756FC2378002BCD
:10A4C0007FF436AF3BE73F4B1B788DF80C3000250F
:10A4D000022302A8A570A4F8465025708DF8083014
:10A4E000FFF79AF83A4B1878FFF73EFC394B8DF896
:10A4F00014500FCB0AAD05E90F0005A8FFF74AFA83
:10A500002378002B7FF414AF19E702238DF8143061
:10A510005178937805A843EA0123ADF81830FFF786
:10A5200039FA237801226270002B7FF401AF06E72D
:10A5300003238DF814305178937843EA0123ADF862
:10A5400018301379D07851791B0243EA00430B434A
:10A55000642101FB03F3079393798DF8203005A85C
:10A56000FFF718FA2378DDE7A378ABB921791A4A07
:10A570008DF81430E0208DF822308DF81800ADF8F9
:10A58000201007923FE76378012B27D0042B7FF43C
:10A590002BAF0123637027E7012321790E4A8DF841
:10A5A0001430E0204FF400638DF81800ADF820104F
:10A5B0000792ADF8223026E7D46B0020AC6B002068
:10A5C000206C0020D06B0020EDA50200DA6B00208B
:10A5D000206D0020B06B0020D96B0020B4F846300D
:10A5E000A37102221B1263712271FDE610B52E4C7D
:10A5F00094F8483086B043B3002340F2035094F8F7
:10A60000491094F84A2084F848300123A080A171B1
:10A61000E2716370032001A9FEF792FE18BBA378D4
:10A6200053BB2179214AADF81410E0218DF8083090
:10A630008DF816308DF80C1004921D48FCF75AF86E
:10A6400002A8FFF7C5FA06B010BD6378012B23D02E
:10A65000042B08BF0123207908BF637001A9FEF70E
:10A660006FFE0028DBD000238DF808300493ADF88E
:10A6700014308DF81630E0E723790C4AADF8143029
:10A680000120E0214FF400638DF808008DF80C10D4
:10A690000492ADF81630D0E7B4F84630A37102202A
:10A6A0001B1263712071B6E7D46B0020D96B0020B8
:10A6B000206C00200246024B0068516803C37047BB
:10A6C000406C00200246024B0068516803C370478B
:10A6D000386C002010B40346044C59689A6800682E
:10A6E000DB680FC45DF8044B704700BF706000204A
:10A6F000F0B595B00EAC84E80600064694E8030079
:10A700008D4C8E4A8E4D26608E4E1060C1F3072010
:10A710002B7091803070002B00F0AF808A4A8B49FB
:10A72000D0799379577915790590D07804939378F7
:10A73000CDE90257CDE90030854853781278854D30
:10A740000EF0A6FE844A8549D7799079537905970A
:10A7500017790490D078039393780093CDE901079B
:10A760007F48537812780EF093FE7E4A7E49D07867
:10A770009378CDE90030D37B907B577B0D93137B8F
:10A780000C90D07A0B97977A0A93537A0990107AA3
:10A790000897D77907939379069050790597177999
:10A7A0000493537812780390284602970EF070FEB7
:10A7B0006E496F480EF0B8FD6E4B00951A686849F7
:10A7C000634B6D480EF0B0FD0A200EF0C5FD236806
:10A7D0006A486B496B4A6C4C1B680B60C0E90042CD
:10A7E0006A4B83600822FEF73BFC0546002840F0D8
:10A7F000A080674C9DF838302371204602232370D7
:10A80000FEF70AFF9DF83C30237116222046227085
:10A81000FEF702FF9DF83A3023710722204622708E
:10A82000FEF7FAFE204625702571FEF7F5FE30781A
:10A83000FFF79AFA57494E481395CDE911550EF096
:10A8400073FD55480EF070FD0A200EF085FD4FF4A3
:10A850007F435248ADF8443011A9062200F014FBA2
:10A860004F4811A9062200F00FFB4E4811A90622FD
:10A8700000F00AFB284615B0F0BD374A3749D079B9
:10A880009379577915790590D07804939378CDE929
:10A890000257CDE900303248537812782D4D0EF032
:10A8A000F7FD414A4149D0789378CDE90030D37B18
:10A8B000907B577B0D93137B0C90D07A0B97977AF4
:10A8C0000A93537A0990107A0897D7790793937966
:10A8D000069050790597177904935378127803906E
:10A8E0001B4802970EF0D4FD314A3249D078937854
:10A8F000CDE90030D37B907B577B0D93137B0C907D
:10A90000D07A0B97977A0A93537A0990107A08971E
:10A91000D77907939379069050790597177904931F
:10A92000537812780390284602970EF0B1FD224921
:10A930003FE74FF0FF309EE7AC6B0020586C0020E3
:10A94000216D0020206D0020386C002024B703000A
:10A95000A06C0020E06C0020406C002054B7030085
:10A96000606C00207060002084B70300DCB7030037
:10A97000C4B60300546C0020E4B70300C46B00208D
:10A98000C06B0020E5A20200E1A2020075AA02004D
:10A99000486C00200CB7030014B70300246D00209E
:10A9A000306D00203C6D002090600020FCB703005B
:10A9B0008060002054B80300ACB8030030B52249D1
:10A9C000224A234B234DD878234B244C2D7887B033
:10A9D000CDE9021204938DF8140006AB13E90F00C1
:10A9E00084E80F0000238DF8043025B101A8FEF79C
:10A9F000D1FF07B030BD1A4C032320462370656099
:10AA0000FEF70AFE174B04221B6822702046636083
:10AA1000FEF702FE144B6360052220462270FEF70B
:10AA2000FBFD0622114B227020466360FEF7F4FD09
:10AA30000123204623702371FEF7EEFD0C4B1B68AB
:10AA40001B69984707B030BD406C0020386C00206F
:10AA5000586C0020216D002070600020B06B002039
:10AA6000486C0020546C0020906000208060002022
:10AA7000AC6B0020037883B1012B0DD1427852B921
:10AA80000A4A117839B182F84830037A82F849309D
:10AA9000437A82F84A307047704743781BB9044BB9
:10AAA0001B681B691847FFF789BF00BFD46B0020E4
:10AAB000AC6B002000B585B0012301A88DF80430EF
:10AAC000FEF7CEFC9DF8080005B05DF804FB00BF62
:10AAD0001D4B1B78002B33D130B587B004460D4693
:10AAE000007901A9FEF72CFC38BB184BCDB15B787F
:10AAF0006079217922688DF8163008238DF80C00D2
:10AB0000ADF8141004928DF81730012502A88DF8C5
:10AB10000850FFF75DF8003818BF0120404207B029
:10AB200030BD58786179227923688DF816008DF848
:10AB30000C10ADF814200493E8E74FF0FF30EEE777
:10AB40004FF0FF30704700BFD46B0020586C0020DE
:10AB500030B585B00446002501A88DF80450FEF7F5
:10AB60007FFC9DF80800A04206D0012C1FD0022CCB
:10AB700005D0BCB14FF0FF35284605B030BD051EED
:10AB800018BF012501A86D428DF80840FEF744FD6D
:10AB90000028EFD1124B1B6820465B699847284676
:10ABA00005B030BD70B90546284605B030BD012856
:10ABB000E2D001A88DF80840FEF72EFD05460028DA
:10ABC000E8D0D7E701A88DF80840FEF725FD054637
:10ABD0000028CFD1024B1B685B699847CCE700BFC8
:10ABE000AC6B0020014B00225A707047206C002093
:10ABF000A0F10800B0FA80F040097047082801D0A1
:10AC000000207047084600F045BB00BF082800D070
:10AC10007047084600F09EBB082800D070470846E1
:10AC200000F0AEBB08280B4601D00020704711464B
:10AC3000184600F02BBC00BF082800D0704708461B
:10AC400000F068BC082801D000207047084600F0DA
:10AC500063BC00BF10B408280C4611461A46019B7D
:10AC600003D000205DF8044B704720465DF8044B8C
:10AC700000F084BC10B408280C4611461A46019B0B
:10AC800002D05DF8044B704720465DF8044B00F09D
:10AC9000AFBC00BF08280B4601D00020704711460A
:10ACA000184600F0D9BC00BF082801D0002070472A
:10ACB00010B40C46204611465DF8044B1A4600F0CD
:10ACC0001FBD00BF30B408280C4611461A46DDE906
:10ACD000023502D0002030BC70470295204630BCBF
:10ACE00000F09ABD082801D000207047084600F007
:10ACF0004FBE00BF082801D000207047084600F072
:10AD00008FBE00BF082801D000207047084600F021
:10AD100089BE00BF082801D000207047084600F017
:10AD200085BE00BF082801D000207047084600F00B
:10AD30007FBE00BF082800D07047084600F084BEE0
:10AD400010B408280C4611461A46019B03D0002077
:10AD50005DF8044B704720465DF8044B00F090BE50
:10AD6000082800D07047084600F03CBF082820B4EF
:10AD70000D46114603D0D0B25DF8045B70472846FB
:10AD80001A465DF8045B00F079BF00BF884204DB1F
:10AD90009042CCBF0020012070470020704700BFC8
:10ADA00010B41409B4EB111F12D3914210D20B0945
:10ADB0001AB201F00F0130F81240012303FA01F139
:10ADC00024EA010120F812105DF8044B1846704780
:10ADD00000205DF8044B7047002851D0914250D2BA
:10ADE000531E5B1A51FA83F330B4841C00EB41010B
:10ADF00004EB4304002031F8025B05F00103AA07CD
:10AE000048BF01336A0744BF0133DBB22A0744BF9E
:10AE10000133DBB2EA0644BF0133DBB2AA0644BF0A
:10AE20000133DBB26A0644BF5A1CD3B22A0644BFC0
:10AE30005A1CD3B2EA0544BF5A1CD3B2AA0544BF78
:10AE40005A1CD3B26A0544BF5A1CD3B22A0544BF68
:10AE50005A1CD3B2EA0444BF5A1CD3B2AA0444BF5A
:10AE60005A1CD3B26A0444BF5A1CD3B22A0444BF4A
:10AE70005A1CD3B203448C42D8B2BCD130BC704708
:10AE800070470020704700BF18B311B30AB370B405
:10AE9000C41C641A531E062CDBB21BD9092B19D90A
:10AEA0005608013EF3B20E1D06EB830604460B4620
:10AEB00053F8045B44F8045BB342F9D102F0FE039B
:10AEC00032F0FE0203D031F8132020F8132070BCBA
:10AED0007047704701EB43030238023931F8022F03
:10AEE00020F8022F9942F9D1F1E700BF00B94A607A
:10AEF0008A6070472DE9F047002B4DD0013BDBB253
:10AF000002F1100706460D46144607EB03174FF0F3
:10AF1000FF384FF0000946B1E5B9E560A8461034A6
:10AF2000A742F8D14046BDE8F0876068FBF70CFC0B
:10AF3000824645BB6068FBF707FCE368834206D99D
:10AF4000002BECD0181A804528BF8046E7E7C4F8EC
:10AF50000C90E4E7D4E9020AFBF7F6FB8245F6D948
:10AF6000D4F80CA0BAF1000FD9D0A068FBF7ECFB25
:10AF7000AAEB00004045D2D2D4E90208FBF7E4FB7B
:10AF8000A8EB0008CBE7A068FBF7DEFB8245D1D237
:10AF9000A068FBF7D9FBD0E74FF0FF384046BDE88B
:10AFA000F08700BF0378032B01D00020704790F991
:10AFB000013003F00F02C3F303138A704B708378E0
:10AFC0008B80C27843EA02238B800379C3F3021299
:10AFD00003F00F03CA700B70052070472DE9F04F86
:10AFE000447890F9026090F903C085B0A4B9B0F933
:10AFF000026090F906C040F60F75AE4290F9056008
:10B000000AD090F807800E70204682F800C083F8BE
:10B01000008005B0BDE8F08F047890F80480002C23
:10B02000F1D090F91050B5420CDD90F9195090F91B
:10B030001800AC4504F0FD0445DB8445E3DD04F075
:10B04000FB04E0E790F91150B542EEDB057A039579
:10B05000002DEAD0C56801954FF0000B45690295B7
:10B06000D946019F5FFA8BF55FFA89F937F815A089
:10B070000C252F46029D17FB0959002501E0102DD4
:10B0800023D04AFA05F705EB450E17F0010F09EB3F
:10B090008E0E05F10105F2D09EF8087007F00F0E34
:10B0A0007645ECDBB6EB171FE9DC90F9195090F907
:10B0B00018706545C8BFAC4611DD072CA3D1B8F1A7
:10B0C000000FA0D19DE7AC469DE70BF1010B039F5C
:10B0D0004FEA0B195FFA89F5AF42C2D8A5E7674579
:10B0E000ADDBEAE7012370B503FA00F00E460CF081
:10B0F00091FE044630460D460CF07CFE02460B469F
:10B10000204629460DF01AF8034B00220CF0ECFE05
:10B1100041EC100B70BD00BF00408F402DE9F84F8F
:10B1200055EC104B0746043840000E4692469B46AD
:10B130000CF070FE22462B460CF0D6FE80467000C6
:10B1400089460CF057FE02460B46404649460CF035
:10B1500015FD22462B460CF0F1FF41EC100B03F0DD
:10B16000DFFC51EC100B0DF081F9874238BF074628
:10B170001C4BCBF800700022204629460CF0B4FE90
:10B180008046504689460CF035FE0B46024649463D
:10B1900040460CF0F1FC0246384616460F460CF0CD
:10B1A00029FE114B804689460022204629460CF094
:10B1B0009BFE02460B46404649460CF095FE024671
:10B1C0000B46304639460CF0D7FC41EC100B03F02F
:10B1D000A7FC51EC100B0DF021F90A9C2060BDE892
:10B1E000F88F00BF000010400000E03F00B54000B5
:10B1F00007EE900A30EE600AF8EE677A83B030EE20
:10B20000670A03F023FEFDEEC07ACDED017A9DF9C9
:10B21000040003B05DF804FB70B4D0E90021C37AE8
:10B22000447A03EB430302EB830300255B7A01EBD3
:10B2300003121E018B5BD56084B9C46813498C422C
:10B2400016D3134D42F21071AC4238BF4FF47A71ED
:10B25000847A8CB9047A7CB970BC7047817A0029F1
:10B26000FAD00169013B01FB03F370BCD360704766
:10B27000847A6421002CEDD08B4238BF0B460169E3
:10B28000013B01FB03F370BCD360704780EE3600D6
:10B29000803F5C0208B50378202B12D8DFE803F06A
:10B2A0001311111111111111114038113D2C2F32B0
:10B2B000351D201128132A191B17111111111515ED
:10B2C0004500002008BD082008BD022008BD1A481E
:10B2D00008BD1A4808BD482008BD4FF4804008BD8D
:10B2E0004FF47A71164802F0A5FB00F5FA6008BD2C
:10B2F000144808BD144808BD4FF47A7008BD4FF4D7
:10B30000FA6008BD41F2883008BD41F2707008BD96
:10B3100090F901300D4AD05C08BD40F6B83008BD48
:10B3200090F901300A4AD05C08BD90F9010000286C
:10B33000C8D0013840B208BD486D0020246D0020FF
:10B3400018FCFFFFA0700837306D002024B90300FF
:10B3500014B9030010B40378074C084942684078D8
:10B3600003EB430304EB83035DF8044B5B7A01EBCF
:10B370000311FFF7BBBD00BF486D0020A460002093
:10B38000012870B558D0022852D000B170BD344D9C
:10B39000344A2B4605F5407430211A6019725872F0
:10B3A0000C3302F54332A34202F5A072F5D12E48C8
:10B3B0002E492F4B2F4CC5F80033C5F80C03FF2343
:10B3C00000F5C3004FF0FF3200F520508B60C5F848
:10B3D0001843442304F5C304C1E90022264E274A3A
:10B3E000A5F80833A5F81433A5F82033A5F82C33B5
:10B3F000A5F83833A5F84433A5F85033A5F85C33E5
:10B4000004F520541E4BC5F83C031E48C5F83023F4
:10B41000C5F824630622C5F84843C5F85433FFF73E
:10B4200033FDBDE87040174917480622FFF72CBDD1
:10B430000E4914480622F2E7124C0C492046062217
:10B44000FFF722FD104B2668D3E90001D4E9015231
:10B450009C68304029402240C3E900019A6070BDD9
:10B46000486D00206001C835C019EB35246D0020FF
:10B47000C0AFD235C0830336C0ED1B36C05734365B
:10B48000C0957D36306D00203C6D0020043908B534
:10B490001A290FD8DFE801F0202A3410100E0E0E02
:10B4A0000E0E0E0E0E0E0E0E0E0E0E0E0E0E0E0EBC
:10B4B0000E0E1A00002008BD0A22002190F900009B
:10B4C000FFF764FC003818BF012008BD0078012890
:10B4D00094BF0020012008BD0422002190F9000043
:10B4E000FFF754FC003818BF012008BD05220021D9
:10B4F00090F90000FFF74AFC003818BF012008BD92
:10B500000D22082190F90000FFF740FC003818BF19
:10B51000012008BD704700BFF8B504220446002191
:10B520000068FFF759FC012803D0257955B1012D9A
:10B5300001D00020F8BD21680D480622FFF7A4FCC9
:10B540002846F8BD0B4D216828460622FFF79CFCD3
:10B55000094B28689C68D3E90071D5E9016238403D
:10B5600031402240C3E900019A600120F8BD00BFCC
:10B57000246D0020306D00203C6D0020F0B4447834
:10B58000466890F9085090F909701E6014B135B9F9
:10B590001D602C460D7020461770F0BC70473F2E82
:10B5A0000BD95F2E03D906F01F06012E0BD0002702
:10B5B0000D7020461770F0BC704700240D702046B7
:10B5C0001770F0BC7047013D6DB2002DEFD10478CB
:10B5D0004CB1064BFF244FF0FF309C60C3E90000E4
:10B5E0002F462C46D6E72746D4E700BF306D002013
:10B5F0000D282DE9F041A8BF0D20DFF858C0124EEC
:10B600005CF820505870B54282B01C4688461746F8
:10B6100018D00E4B9D420CBF022500250C4B5CF848
:10B620002010A570185CFFF75DFD04F10C0300937A
:10B630003946404604F108030322FFF76FFD02B0CC
:10B64000BDE8F0810125E9E790D0030020A10700C3
:10B65000B0B80300C0B803002DE9F041224E90F9C4
:10B660000180B36845688CB004460F4698470028AF
:10B6700036D1E37C33B925781C4A1D4B05F007050C
:10B6800002FB05351B4A336912F908200B92284644
:10B69000984700250821A37C0993CDE90655CDE9FB
:10B6A0000455CDE90255CDE9005101230893184610
:10B6B0000B9AF569A178A847637C6BB90E4B13F818
:10B6C0000810F36D0D31C9B201209847012087F8A9
:10B6D00000800CB0BDE8F081084B13F80810F0E7CB
:10B6E00000200CB0BDE8F08138B90300C027090084
:10B6F000A0700837B0B8030014B9030024B90300E0
:10B700002DE9F04F04463B4894F9013094F902705A
:10B71000C656042B8DB0894692463FD1022F364D36
:10B72000B8BF02274FF0020BDFED340ADFF8E480E8
:10B73000B3EE0E0A3846FFF759FD2278D8F81030DC
:10B740000B9002EB420255F8220098470125002297
:10B750004FF0080C40F6B830CDE90720CDE90522BE
:10B76000CDE90325CDF808C00B9900965B46284625
:10B77000D8F820600195B047D8F85C30217B284686
:10B780009847D8F82830217B28469847CAF8000007
:10B79000284689F800700DB0BDE8F08F2378164D6B
:10B7A0001749184803EB430305EB830304225B7A34
:10B7B00001EB0313002193F90280FFF70DFB312801
:10B7C00014D94745B8BF47460F4B94F901100F4AAB
:10B7D00053F82130934202D14FF0010BA4E70C4AF9
:10B7E000934218BF4FF0000B9ED19BE7052FB8BFC7
:10B7F0000527E9E7B0B80300486D0020000000000D
:10B80000A4600020306D0020C0B8030090D0030079
:10B8100020A1070038B903002DE9F04F8FB004AF25
:10B82000064600248B46924656497C6038460622DE
:10B8300001930494BC60FFF727FB3579002D00F0DD
:10B840009C802546A0460DF1080907240EE00EABAA
:10B85000072C03EB440268D0052C6DD0BDF80C100A
:10B8600022F8281C07243279AA4218D930684946A0
:10B870002844FFF797FB421988B19DF80B40062C2E
:10B88000D5B2E4D14FF0FF32CDE904223279BDF8D0
:10B890000C10ADF81810AA424FF00704E6D89DF935
:10B8A0000920032A4ADDB1799DF80A008DF81C4071
:10B8B0008DF81E20747A9DF808208DF81D108DF8E3
:10B8C0001F00F179307A8DF820208DF82110482260
:10B8D0004FF480618DF822008DF823402A488DF8BE
:10B8E00024200A240DEB0402ADF82C100C904B46DA
:10B8F0000DF1090107A8ADF834400A97FFF76EFB78
:10B900000728044625D09DF809309DF80A208BF8B9
:10B9100000308AF80020019A9DF808301370189BB7
:10B9200020461D700FB0BDE8F08FBDF80C20ADF8BB
:10B930001820CDE9048896E7062494E70422002124
:10B940003846FFF749FA01289DF9092098BF0624D7
:10B95000A9E7DFF830800D4E394640460622FFF752
:10B9600093FAD6E90023D8E90101D8F80070B16054
:10B970003A400340C6E90023C5E707240DF1080952
:10B980008DE700BF306D0020486D00203C6D002029
:10B9900070B51F4B45685B6A04462846984720B13E
:10B9A0001C4B1D4A2B44934223D9042506260D2205
:10B9B000082194F90000FFF7E9F907220346052161
:10B9C00094F90000002B08BF2E46FFF7DFF901288D
:10B9D00004D094F900300D2BD8BF354694F90100FE
:10B9E00003220021FFF7D2F908B905F0FB0528462C
:10B9F00070BD0A4A02FB03F34FEAB31341F6F63275
:10BA000093428BBF0425052506260726CFE700BFF6
:10BA100038B90300608FF7C8401640005FF74359FC
:10BA2000002070474FF0FF30704700BF0020704784
:10BA3000044BFF221A81038813F0010F14BF042066
:10BA400000207047306D002070B586B0D0E90154F9
:10BA50004378094A8DF80C30084B067841888DF8F8
:10BA60000D6001A8CDE90454CDE90123ADF80E1015
:10BA7000FFF7D2FB06B070BD486D0020A460002027
:10BA80002DE9F04F002597B0524F04958C4616468D
:10BA900029464422044605A80196CDF80CC01E464E
:10BAA0000CF0CCFD294638460422FFF795F9002812
:10BAB00074D094F90830032B02DD3B7A002B56D06A
:10BAC000D4E90050FAF740FE854259D80025A17A02
:10BAD000607A35600123404ADFF804A1DFF8F49072
